:100000000C9434000C943E000C943E000C943E0082
:100010000C943E000C943E000C943E000C943E0068
:100020000C943E000C943E000C943E000C943E0058
:100030000C943E000C943E000C943E000C943E0048
:100040000C943E000C943E000C943E000C943E0038
:100050000C943E000C943E000C943E000C943E0028
:100060000C943E000C943E0011241FBECFEFD8E04C
:10007000DEBFCDBF0E9440000C947B020C940000B8
:1000800008E00EBF0FEF0DBF0E9472000E94350204
:1000900082E50E9481008AE30E94810080E891E06D
:1000A00060E072E00E9453010E943B02882799277A
:1000B00061E00E9451020E94BD010E948A008DE40D
:1000C0000E9481008AE30E94810080E69CE00E94F9
:1000D0006302882799270E946D020E94BD010E9439
:1000E0008A00FFCF0F9300E00093C50007E600935E
:1000F000C40008E00093C10006E00093C2000F9125
:1001000008950F930091C00005FFFCCF8093C600B7
:100110000F9108958F938DE00E9481008AE00E94E4
:1001200081008F9108952F933F934F935F939C018C
:10013000AB01249FC001349F900D259F900D112489
:100140005F914F913F912F9108950F931F932F939C
:100150003F934F935F939C01AB01662777278827D6
:100160009927249FB001259F700D811D00E0901FED
:10017000349F700D811D901F359F800D911D11249E
:100180005F914F913F912F911F910F910895AF93E0
:10019000EE24FF2400271127A0E2660F771F881F97
:1001A000991FEE1CFF1C001F111FE216F306040727
:1001B000150728F0E21AF30A040B150B6395AA95AC
:1001C00061F7AF9108950F931F93AF93BF93DC0135
:1001D0008B01E02EE12A19F48FEF9FEF13C08827DF
:1001E0009927EE24FF2420E1880F991FAA0FBB1F37
:1001F000EE1CFF1CE016F10618F0E01AF10A8395D8
:100200002A9591F7BF91AF911F910F9108950F9388
:10021000EF92FF92002797FF03C003950E941F01F2
:1002200077FF03C003950E9423010E94E30000FFB3
:1002300002C00E941F01FF90EF900F9108959095CA
:1002400081959F4F0895709561957F4F08958F9385
:100250009F930F93082F092B21F480E30E948100C4
:100260000BC097FF07C08F938DE20E9481008F9192
:100270000E941F010E9440010F919F918F9108954C
:10028000082F092B79F08F939F936AE070E00E940A
:10029000E300EF920E9440018F91805D0E948100F7
:1002A0009F918F9108954F935F930F93002797FF2E
:1002B00003C003950E94B50177FF03C003950E9418
:1002C000B9010E94A500982F872F00FF02C00E944D
:1002D000B5010F915F914F910895EF92FF920F93A7
:1002E0001F932F933F934F935F93CF93CC2797FF09
:1002F00003C0C3950E94B50177FF03C0C3950E9458
:10030000B901262F372F44275527692F782F862F9D
:10031000662799270E94C700CB01C0FF02C00E9438
:10032000B501CF915F914F913F912F911F910F9107
:10033000FF90EF9008954F935F936F93AF93BF93A8
:10034000A62FA03019F480E091E009C0A13039F067
:10035000AC01AA95BA010E945301AA95D9F7BF91A1
:10036000AF916F915F914F910895909581959F4FB7
:100370000895709561957F4F08958F939F936F9324
:100380007F930F9397FF07C08F938DE20E948100A8
:100390008F910E94B5018F93892F90E00E942701D1
:1003A0008F918F938EE20E9481008F91682F70E071
:1003B000862F90E068EE73E00E94A500982F872FAB
:1003C00000E08436900728F48F9380E30E94810038
:1003D0008F9100E08A30900728F48F9380E30E9489
:1003E00081008F910E9427010F917F916F919F91C2
:1003F0008F91089586179707A9F017C0861797075A
:1004000089F413C0681779076CF00FC08617970737
:100410004CF00BC0861797072CF407C068177907B4
:100420000CF403C081E090E0089580E090E008952E
:100430000E94E300C70108954F935F936F93462F87
:10044000403019F481E090E00CC0413051F04A9501
:10045000BC016F937F930E9493007F916F914A95A7
:10046000C1F76F915F914F9108950F9300E0009352
:10047000C8010F9108950F93EF93FF930091C80166
:10048000E0E0F1E0E00FF11DE00FF11D81939083BA
:100490000091C80103950093C801FF91EF910F915E
:1004A00008950F93EF93FF930091C801061BE0E0BE
:1004B000F1E0E00FF11DE00FF11D81919081FF91BE
:1004C000EF910F9108950F938093C9019093CA0102
:1004D00001E00093CB010F9108950F930091CB01A0
:1004E000013019F080E090E004C08091C901909142
:0A04F000CA010F910895F894FFCFA0
:00000001FF
