:100000000C9434000C943E000C943E000C943E0082
:100010000C943E000C943E000C943E000C943E0068
:100020000C943E000C943E000C943E000C943E0058
:100030000C943E000C943E000C943E000C943E0048
:100040000C943E000C943E000C943E000C943E0038
:100050000C943E000C943E000C943E000C943E0028
:100060000C943E000C943E0011241FBECFEFD8E04C
:10007000DEBFCDBF0E9440000C941E010C94000016
:1000800008E00EBF0FEF0DBF0E94580081E40E94F0
:100090006D000E94760082ED94E00E947F000E9435
:1000A00076008EE29BEF0E947F000E947600FFCFD9
:1000B0000F931F931FB71F9300E00093C50007E63F
:1000C0000093C40008E10093C10006E00093C20061
:1000D0001F911FBF1F910F9108950F930091C000B2
:1000E00005FFFCCF8093C6000F9108958F938DE09C
:1000F0000E946D008AE00E946D008F9108950F9319
:100100001F932F933F934F935F936F937F9397FF2B
:100110000AC08F939F938DE20E946D009F918F91F3
:10012000809590950196082F092B21F480E30E9479
:100130006D0018C02227AC016AE077270E94CA0030
:100140008C016AE077270E94BB00481B590B405D79
:100150004F932395C801892B71F78F910E946D00F1
:100160002A95D9F77F916F915F914F913F912F9190
:100170001F910F9108952F933F9322273327869F36
:100180009001969F300D879F300DC90111243F913A
:100190002F9108950F931F932F933F93062F072BB3
:1001A00019F48FEF9FEF0FC02227332700E1880F4C
:1001B000991F221F331F2617370718F0261B370BEE
:1001C00083950A95A1F73F912F911F910F91089563
:1001D0004F935F936F937F93AC016F937F930E94D4
:1001E000CA007F916F910E94BB00481B590BCA0146
:1001F0007F916F915F914F9108954F935F936F93AC
:100200007F93062F072B19F481E099270FC0AC01CB
:1002100081E099276F937F93BA010E94BB007F9181
:100220006F9161507040062F072BA1F77F916F915E
:100230005F914F910895861797070895F894FFCF1F
:00000001FF
