:100000000C9434000C943E000C943E000C943E0082
:100010000C943E000C943E000C943E000C943E0068
:100020000C943E000C943E000C943E000C943E0058
:100030000C943E000C943E000C943E000C943E0048
:100040000C943E000C943E000C943E000C943E0038
:100050000C943E000C943E000C943E000C943E0028
:100060000C943E000C943E0011241FBECFEFD8E04C
:10007000DEBFCDBF0E9440000C946E030C940000C4
:1000800008E00EBF0FEF0DBF0E948B010E942803F6
:1000900080E090E0809300019093010180E090E087
:1000A0000E942E030E9423020E94A30180930A0152
:1000B00090930B0181E090E0809302019093030103
:1000C00081E090E00E942E030E9423020E94A3017F
:1000D00080932A0190932B0180E090E080930401AB
:1000E0009093050180E090E00E942E030E9423027D
:1000F0000E94A301809336019093370182E090E043
:10010000809306019093070182E090E00E942E0305
:100110000E9423020E94A301809338019093390129
:10012000809100019091010180933A0190933B01ED
:1001300080913A0190913B010E942E030E9423027C
:100140000E94A30180933C0190933D0180910201A4
:100150009091030180930C0190930D0180910C010B
:1001600090910D010E942E030E9423020E94A30180
:1001700080930E0190930F018091040190910501ED
:1001800080931201909313018091060190910701D1
:10019000809314019093150180911601909117019D
:1001A000892B09F493C08091000190910101809303
:1001B000180190931901809102019091030180939D
:1001C0001A0190931B01809118019091190160917F
:1001D0001A0170911B01860F971F80931C01909349
:1001E0001D0180911C0190911D0180930801909345
:1001F0000901809102019091030180931E01909367
:100200001F0180911E0190911F0180930001909326
:100210000101809108019091090180932001909340
:1002200021018091200190912101809302019093FE
:100230000301809104019091050180932201909324
:100240002301809122019091230161E070E0860FEB
:10025000971F809324019093250180912401909110
:1002600025018093040190930501809126019091CE
:100270002701892B09F411C080910201909103019B
:1002800080932C0190932D0180912C0190912D0150
:10029000809328019093290110C0809102019091D0
:1002A000030180932E0190932F0180912E01909154
:1002B0002F0180932801909329018091280190912A
:1002C0002901809310019093110156CF8091100164
:1002D000909111010E942E030E9423020E94A3010B
:1002E000809330019093310180910201909103013C
:1002F00080933201909333018091320190913301C8
:100300000E942E030E9423020E94A30180933401C5
:1003100090933501FFCF0F9300E00093C50007E6EF
:100320000093C40008E00093C10006E00093C200FF
:100330000F9108950F930091C00005FFFCCF8093AB
:10034000C6000F9108958F938DE00E949A018AE074
:100350000E949A018F9108952F933F934F935F933B
:100360009C01AB01249FC001349F900D259F900DEF
:1003700011245F914F913F912F9108950F931F93F7
:100380002F933F934F935F939C01AB016627772791
:1003900088279927249FB001259F700D811D00E0BB
:1003A000901F349F700D811D901F359F800D911DF2
:1003B00011245F914F913F912F911F910F910895BB
:1003C000AF93EE24FF2400271127A0E2660F771FCA
:1003D000881F991FEE1CFF1C001F111FE216F30659
:1003E0000407150728F0E21AF30A040B150B6395AE
:1003F000AA9561F7AF9108950F931F93AF93BF93A1
:10040000DC018B01E02EE12A19F48FEF9FEF13C07E
:1004100088279927EE24FF2420E1880F991FAA0F2F
:10042000BB1FEE1CFF1CE016F10618F0E01AF10AE3
:1004300083952A9591F7BF91AF911F910F910895E0
:100440000E94FC0108958F939F930F93082F092B0F
:1004500021F480E30E949A0102C00E9433020F91AE
:100460009F918F910895082F092B79F08F939F9377
:100470006AE070E00E94FC01EF920E9433028F91CB
:10048000805D0E949A019F918F9108954F935F9391
:100490000F93002797FF03C003950E94A80277FFE0
:1004A00003C003950E94AC020E94BE01982F872FC3
:1004B00000FF02C00E94A8020F915F914F91089522
:1004C000EF92FF920F931F932F933F934F935F935E
:1004D000CF93CC2797FF03C0C3950E94A80277FF54
:1004E00003C0C3950E94AC02262F372F44275527FF
:1004F000692F782F862F662799270E94E001CB016C
:10050000C0FF02C00E94A802CF915F914F913F911E
:100510002F911F910F91FF90EF9008954F935F934C
:100520006F93AF93BF93A62FA03019F480E091E0B2
:1005300009C0A13039F0AC01AA95BA010E94460267
:10054000AA95D9F7BF91AF916F915F914F9108959F
:10055000909581959F4F0895709561957F4F08956F
:100560008F939F936F937F930F9397FF07C08F9302
:100570008DE20E949A018F910E94A8028F93892F89
:1005800090E00E9423028F918F938EE20E949A0145
:100590008F91682F70E0862F90E068EE73E00E94E4
:1005A000BE01982F872F00E08436900728F48F93A0
:1005B00080E30E949A018F9100E08A30900728F42E
:1005C0008F9380E30E949A018F910E9423020F91E2
:1005D0007F916F919F918F91089586179707A9F04A
:1005E00017C08617970789F413C0681779076CF04E
:1005F0000FC0861797074CF00BC0861797072CF48F
:1006000007C0681779070CF403C081E090E00895F3
:1006100080E090E008950E94FC01C70108954F9387
:100620005F936F93462F403019F481E090E00CC047
:10063000413051F04A95BC016F937F930E94AC0109
:100640007F916F914A95C1F76F915F914F91089596
:100650000F9300E0009306020F9108950F93EF931C
:10066000FF9300910602EEE3F1E0E00FF11DE00FD1
:10067000F11D819390830091060203950093060279
:10068000FF91EF910F9108950F93EF93FF930091D6
:100690000602061BEEE3F1E0E00FF11DE00FF11D95
:1006A00081919081FF91EF910F9108950F93809325
:1006B00007029093080201E0009309020F91089548
:1006C0000F9300910902013019F080E090E004C01E
:1006D00080910702909108020F910895F894FFCF3E
:00000001FF
