:100000000C9434000C943E000C943E000C943E0082
:100010000C943E000C943E000C943E000C943E0068
:100020000C943E000C943E000C943E000C943E0058
:100030000C943E000C943E000C943E000C943E0048
:100040000C943E000C943E000C943E000C943E0038
:100050000C943E000C943E000C943E000C943E0028
:100060000C943E000C943E0011241FBECFEFD8E04C
:10007000DEBFCDBF0E9440000C94BC020C94000077
:1000800008E00EBF0FEF0DBF0E94D9000E9476025C
:1000900080E090E0809300019093010180E090E087
:1000A0000E947C020E9471010E94F1008093040171
:1000B0009093050185E090E0809302019093030105
:1000C00085E090E00E947C020E9471010E94F10094
:1000D0008093100190931101809100019091010192
:1000E0008093140190931501809102019091030176
:1000F0008093160190931701809118019091190136
:10010000892B09F431C08091000190910101809305
:100110001A0190931B0180911A0190911B0161E0DB
:1001200070E0860F971F80930601909307018091DE
:100130000601909107018093000190930101809145
:1001400006019091070160E070E00E94FA00809340
:100150000801909309018091080190910901809311
:10016000120190931301B8CF809112019091130165
:100170000E947C020E9471010E94F10080930A019A
:1001800090930B01809100019091010180930C01EB
:1001900090930D0180910C0190910D010E947C02C1
:1001A0000E9471010E94F10080930E0190930F0153
:1001B000FFCF0F9300E00093C50007E60093C40053
:1001C00008E00093C10006E00093C2000F9108957B
:1001D0000F930091C00005FFFCCF8093C6000F91E4
:1001E00008958F938DE00E94E8008AE00E94E80065
:1001F0008F9108952F933F934F935F939C01AB0191
:10020000249FC001349F900D259F900D11245F9174
:100210004F913F912F9108950F931F932F933F93E9
:100220004F935F939C01AB01662777278827992717
:10023000249FB001259F700D811D00E0901F349F09
:10024000700D811D901F359F800D911D11245F91B0
:100250004F913F912F911F910F910895AF93EE24ED
:10026000FF2400271127A0E2660F771F881F991F20
:10027000EE1CFF1C001F111FE216F30604071507F2
:1002800028F0E21AF30A040B150B6395AA9561F79F
:10029000AF9108950F931F93AF93BF93DC018B0130
:1002A000E02EE12A19F48FEF9FEF13C088279927DA
:1002B000EE24FF2420E1880F991FAA0FBB1FEE1C1C
:1002C000FF1CE016F10618F0E01AF10A83952A9552
:1002D00091F7BF91AF911F910F9108950E944A012C
:1002E00008958F939F930F93082F092B21F480E398
:1002F0000E94E80002C00E9481010F919F918F919E
:100300000895082F092B79F08F939F936AE070E08E
:100310000E944A01EF920E9481018F91805D0E94AC
:10032000E8009F918F9108954F935F930F9300275B
:1003300097FF03C003950E94F60177FF03C0039562
:100340000E94FA010E940C01982F872F00FF02C023
:100350000E94F6010F915F914F910895EF92FF92E5
:100360000F931F932F933F934F935F93CF93CC277C
:1003700097FF03C0C3950E94F60177FF03C0C395A2
:100380000E94FA01262F372F44275527692F782FEF
:10039000862F662799270E942E01CB01C0FF02C03D
:1003A0000E94F601CF915F914F913F912F911F9144
:1003B0000F91FF90EF9008954F935F936F93AF93DA
:1003C000BF93A62FA03019F480E091E009C0A130BE
:1003D00039F0AC01AA95BA010E949401AA95D9F707
:1003E000BF91AF916F915F914F91089590958195D5
:1003F0009F4F0895709561957F4F08958F939F93B8
:100400006F937F930F9397FF07C08F938DE20E94A6
:10041000E8008F910E94F6018F93892F90E00E944F
:1004200071018F918F938EE20E94E8008F91682F67
:1004300070E0862F90E068EE73E00E940C01982F28
:10044000872F00E08436900728F48F9380E30E9482
:10045000E8008F9100E08A30900728F48F9380E3C2
:100460000E94E8008F910E9471010F917F916F911E
:100470009F918F91089586179707A9F017C0861747
:10048000970789F413C0681779076CF00FC08617B7
:1004900097074CF00BC0861797072CF407C0681716
:1004A00079070CF403C081E090E0089580E090E0CB
:1004B00008950E944A01C70108954F935F936F9377
:1004C000462F403019F481E090E00CC0413051F0EB
:1004D0004A95BC016F937F930E94FA007F916F91C0
:1004E0004A95C1F76F915F914F9108950F9300E086
:1004F0000093E4010F9108950F93EF93FF93009100
:10050000E401ECE1F1E0E00FF11DE00FF11D81935A
:1005100090830091E40103950093E401FF91EF9132
:100520000F9108950F93EF93FF930091E401061B41
:10053000ECE1F1E0E00FF11DE00FF11D8191908100
:10054000FF91EF910F9108950F938093E5019093A0
:10055000E60101E00093E7010F9108950F930091E8
:10056000E701013019F080E090E004C08091E501DE
:0C0570009091E6010F910895F894FFCFE0
:00000001FF
