:100000000C9434000C943E000C943E000C943E0082
:100010000C943E000C943E000C943E000C943E0068
:100020000C943E000C943E000C943E000C943E0058
:100030000C943E000C943E000C943E000C943E0048
:100040000C943E000C943E000C943E000C943E0038
:100050000C943E000C943E000C943E000C943E0028
:100060000C943E000C943E0011241FBECFEFD8E04C
:10007000DEBFCDBF0E9440000C94F6020C9400003D
:10008000112408E00EBF0FEF0DBF0E94BA010E94BD
:10009000B00280E090E0809300019093010180E045
:1000A00090E00E94B6020E9452020E94D201809308
:1000B0000A0190930B0181E090E0809302019093FC
:1000C000030181E090E00E94B6020E9452020E9469
:1000D000D201809330019093310180E090E08093D1
:1000E00004019093050180E090E00E94B6020E9416
:1000F00052020E94D201809338019093390187E126
:1001000090E0809306019093070187E190E00E94C0
:10011000B6020E9452020E94D20180933A0190934B
:100120003B01809100019091010180933C019093EB
:100130003D0180913C0190913D010E94B6020E94D8
:1001400052020E94D20180933E0190933F01809120
:1001500002019091030180930C0190930D01809115
:100160000C0190910D010E94B6020E9452020E9461
:10017000D20180930E0190930F0180910401909120
:1001800005018093120190931301809106019091D3
:1001900007018093140190931501809112019091B1
:1001A000130160911401709115010E9481028093E6
:1001B0001601909317018091160190911701892BD8
:1001C00009F4C9C080910001909101018093180148
:1001D00090931901809102019091030180931A017B
:1001E00090931B01809118019091190160911A015F
:1001F00070911B01860F971F80931C0190931D0126
:1002000080911C0190911D01809308019093090138
:10021000809102019091030180931E0190931F0130
:1002200080911E0190911F01809300019093010124
:1002300080911C0190911D0160911E0170911F0120
:10024000860F971F809320019093210180910801D0
:1002500090910901809322019093230180912201C2
:1002600090912301809302019093030180910401F6
:1002700090910501809324019093250180912401A0
:100280009091250161E070E0860F971F8093260111
:10029000909327018091260190912701809304017A
:1002A0009093050180912201909123016091260194
:1002B00070912701860F971F809328019093290141
:1002C0008091200190912101609128017091290174
:1002D000860F971F80932A0190932B0180912A010A
:1002E00090912B0160E070E00E947D0280932C01D0
:1002F00090932D0180912C0190912D01892B09F46F
:1003000011C080910201909103018093320190937A
:100310003301809132019091330180932E019093AB
:100320002F0110C08091020190910301809334014C
:1003300090933501809134019091350180932E0185
:1003400090932F0180912E0190912F0180931001A5
:100350009093110112CF80911001909111010E9490
:10036000B6020E9452020E94D201809336019093FD
:100370003701FFCF0F9300E00093C50007E600931D
:10038000C40008E00093C10006E00093C2000F9192
:1003900008950F930091C00005FFFCCF8093C60025
:1003A0000F9108958F938DE00E94C9018AE00E9409
:1003B000C9018F9108952F933F934F935F939C01B1
:1003C000AB01249FC001349F900D259F900D1124F7
:1003D0005F914F913F912F9108950F931F932F930A
:1003E0003F934F935F939C01AB0166277727882744
:1003F0009927249FB001259F700D811D00E0901F5B
:10040000349F700D811D901F359F800D911D11240B
:100410005F914F913F912F911F910F910895AF934D
:10042000EE24FF2400271127A0E2660F771F881F04
:10043000991FEE1CFF1C001F111FE216F306040794
:10044000150728F0E21AF30A040B150B6395AA9519
:1004500061F7AF9108950F931F93AF93BF93DC01A2
:100460008B01E02EE12A19F48FEF9FEF13C088274C
:100470009927EE24FF2420E1880F991FAA0FBB1FA4
:10048000EE1CFF1CE016F10618F0E01AF10A839545
:100490002A9591F7BF91AF911F910F9108950E94F6
:1004A0002B0208958F939F930F93082F092B21F40C
:1004B00080E30E94C90102C00E9462020F919F91D5
:1004C0008F910895082F092B79F08F939F936AE0FD
:1004D00070E00E942B02EF920E9462028F91805D79
:1004E0000E94C9019F918F91089586179707A9F0DF
:1004F00017C08617970789F413C0681779076CF03F
:100500000FC0861797074CF00BC0861797072CF47F
:1005100007C0681779070CF403C081E090E00895E4
:1005200080E090E008950E942B02C70108954F9348
:100530005F936F93462F403019F481E090E00CC038
:10054000413051F04A95BC016F937F930E94DB01CB
:100550007F916F914A95C1F76F915F914F91089587
:100560000F9300E0009308020F9108950F93EF930B
:10057000FF9300910802E0E4F1E0E00FF11DE00FCD
:10058000F11D819390830091080203950093080266
:10059000FF91EF910F9108950F93EF93FF930091C7
:1005A0000802061BE0E4F1E0E00FF11DE00FF11D91
:1005B00081919081FF91EF910F9108950F93809316
:1005C000090290930A0201E000930B020F91089533
:1005D0000F9300910B02013019F080E090E004C00D
:1005E0008091090290910A020F910895F894FFCF2B
:00000001FF
