:100000000C9434000C943E000C943E000C943E0082
:100010000C943E000C943E000C943E000C943E0068
:100020000C943E000C943E000C943E000C943E0058
:100030000C943E000C943E000C943E000C943E0048
:100040000C943E000C943E000C943E000C943E0038
:100050000C943E000C943E000C943E000C943E0028
:100060000C943E000C943E0011241FBECFEFD8E04C
:10007000DEBFCDBF0E9440000C94D8020C9400005B
:10008000112408E00EBF0FEF0DBF0E949C010E94DB
:100090006C0280E090E0809300019093010180E089
:1000A00090E00E94720281E090E0809302019093C0
:1000B000030181E090E00E94720280E090E0809372
:1000C00004019093050180E090E00E94720287E1B4
:1000D00090E0809306019093070187E190E00E94F1
:1000E0007202809100019091010180932C01909304
:1000F0002D0180912C0190912D010E94720280911E
:100100002C0190912D010E94B5020E94B4018093B0
:100110002E0190932F018091020190910301809311
:1001200030019093310180913001909131010E9412
:10013000720280913001909131010E94B5020E94BB
:10014000B401809332019093330180910401909126
:1001500005018093360190933701809106019091BB
:10016000070180930A0190930B01809136019091D1
:10017000370160910A0170910B010E943D0280934A
:100180000C0190930D0180910C0190910D01892B30
:1001900009F4B1C0809100019091010180930E019A
:1001A00090930F01809102019091030180931001BF
:1001B0009093110180910E0190910F0160911001B7
:1001C00070911101860F971F809312019093130174
:1001D000809112019091130180930801909309017D
:1001E0008091020190910301809314019093150175
:1001F0008091140190911501809300019093010169
:100200008091120190911301609114017091150178
:10021000860F971F80931601909317018091080114
:100220009091090180931801909319018091180110
:100230009091190180930201909303018091040130
:100240009091050180931A0190931B0180911A01EE
:1002500090911B0161E070E0860F971F80931C0155
:1002600090931D0180911C0190911D0180930401C8
:1002700090930501809118019091190160911C01E2
:1002800070911D01860F971F80931E0190931F018F
:10029000809116019091170160911E0170911F01CC
:1002A000860F971F80932001909321018091200158
:1002B0009091210160E070E00E9439028093220158
:1002C000909323018091220190912301892B09F4BD
:1002D00009C08091020190910301809324019093C1
:1002E000250108C0809102019091030180932601AD
:1002F000909327012ACF80913401909135010E947B
:1003000072028091020190910301809328019093E1
:10031000290180912801909129010E947202809107
:100320002801909129010E94B5020E94B401809396
:100330002A0190932B01FFCF0F9300E00093C5009B
:1003400007E60093C40008E00093C10006E00093B4
:10035000C2000F9108950F930091C00005FFFCCFDC
:100360008093C6000F9108958F938DE00E94AB019A
:100370008AE00E94AB018F9108952F933F934F9392
:100380005F939C01AB01249FC001349F900D259F7A
:10039000900D11245F914F913F912F9108950F93EC
:1003A0001F932F933F934F935F939C01AB0166275D
:1003B000772788279927249FB001259F700D811DDD
:1003C00000E0901F349F700D811D901F359F800DA0
:1003D000911D11245F914F913F912F911F910F918A
:1003E0000895AF93EE24FF2400271127A0E2660FA3
:1003F000771F881F991FEE1CFF1C001F111FE2169C
:10040000F3060407150728F0E21AF30A040B150B8C
:100410006395AA9561F7AF9108950F931F93AF93DA
:10042000BF93DC018B01E02EE12A19F48FEF9FEFDF
:1004300013C088279927EE24FF2420E1880F991FF5
:10044000AA0FBB1FEE1CFF1CE016F10618F0E01A05
:10045000F10A83952A9591F7BF91AF911F910F9162
:10046000089586179707A9F017C08617970789F48C
:1004700013C0681779076CF00FC0861797074CF008
:100480000BC0861797072CF407C0681779070CF480
:1004900003C081E090E0089580E090E008950E941C
:1004A0000D02C70108954F935F936F93462F40301D
:1004B00019F481E090E00CC0413051F04A95BC0144
:1004C0006F937F930E94BD017F916F914A95C1F711
:1004D0006F915F914F9108950F9300E00093000298
:1004E0000F9108950F93EF93FF9300910002E8E3BB
:1004F000F1E0E00FF11DE00FF11D81939083009179
:100500000002039500930002FF91EF910F9108956F
:100510000F93EF93FF9300910002061BE8E3F1E0D5
:10052000E00FF11DE00FF11D81919081FF91EF919E
:100530000F9108950F93809301029093020201E0BE
:10054000009303020F9108950F930091030201306D
:1005500019F080E090E004C08091010290910202C5
:100560000F9108950E940D0208958F939F930F930A
:10057000082F092B21F480E30E94AB0102C00E94E6
:10058000C5020F919F918F910895082F092B79F043
:100590008F939F936AE070E00E940D02EF920E9499
:1005A000C5028F91805D0E94AB019F918F9108954C
:0405B000F894FFCFED
:00000001FF
