:100000000C9434000C943E000C943E000C943E0082
:100010000C943E000C943E000C943E000C943E0068
:100020000C943E000C943E000C943E000C943E0058
:100030000C943E000C943E000C943E000C943E0048
:100040000C943E000C943E000C943E000C943E0038
:100050000C943E000C943E000C943E000C943E0028
:100060000C943E000C943E0011241FBECFEFD8E04C
:10007000DEBFCDBF0E9440000C947C030C940000B6
:1000800008E00EBF0FEF0DBF0E9473010E94360300
:1000900080E091E0809300019093010180E091E085
:1000A0000E943C030E94BE020E948B0180930401C7
:1000B0009093050180E890E0809302019093030102
:1000C00080E890E00E943C030E94BE020E948B01E7
:1000D000809324019093250180910001909101016A
:1000E00080932A0190932B0180910201909103014A
:1000F00080932C0190932D0180912C0190912D01E2
:1001000062E070E00E949C0280932E0190932F0188
:1001100080912E0190912F0160E072E00E946E02AA
:10012000809330019093310180912A0190912B01AD
:100130006091300170913101861B970B809306010D
:10014000909307018091060190910701809300012F
:100150009093010180910601909107010E943C0358
:100160000E94BE020E948B018093080190930901B6
:10017000809100019091010180930A0190930B01FD
:10018000809102019091030180930C0190930D01E5
:1001900080910C0190910D0164E070E00E949C023E
:1001A00080930E0190930F0180910E0190910F01A9
:1001B00060E078E10E946E0280931001909311013B
:1001C00080910A0190910B016091100170911101D1
:1001D000860F971F80931201909313018091120153
:1001E000909113018093000190930101809112017D
:1001F000909113010E943C030E94BE020E948B0159
:100200008093140190931501809100019091010158
:100210008093160190931701809102019091030140
:100220008093180190931901809118019091190100
:1002300066E070E00E949C0280931A0190931B017B
:1002400080911A0190911B0160E078E10E946E029A
:1002500080931C0190931D0180911C0190911D01C0
:1002600060E07EE10E946E0280931E0190931F0168
:10027000809116019091170160911E0170911F01EC
:10028000861B970B80932001909321018091200180
:1002900090912101809300019093010180912001B0
:1002A000909121010E943C030E94BE020E948B019A
:1002B000809322019093230180910001909101018C
:1002C0008093260190932701809126019091270128
:1002D0000E943C030E94BE020E948B018093280171
:1002E00090932901FFCF0F9300E00093C50007E62C
:1002F0000093C40008E00093C10006E00093C20030
:100300000F9108950F930091C00005FFFCCF8093DB
:10031000C6000F9108958F938DE00E9482018AE0BC
:100320000E9482018F9108952F933F934F935F9383
:100330009C01AB01249FC001349F900D259F900D1F
:1003400011245F914F913F912F9108950F931F9327
:100350002F933F934F935F939C01AB0166277727C1
:1003600088279927249FB001259F700D811D00E0EB
:10037000901F349F700D811D901F359F800D911D22
:1003800011245F914F913F912F911F910F910895EB
:10039000AF93EE24FF2400271127A0E2660F771FFA
:1003A000881F991FEE1CFF1C001F111FE216F30689
:1003B0000407150728F0E21AF30A040B150B6395DE
:1003C000AA9561F7AF9108950F931F93AF93BF93D1
:1003D000DC018B01E02EE12A19F48FEF9FEF13C0AF
:1003E00088279927EE24FF2420E1880F991FAA0F60
:1003F000BB1FEE1CFF1CE016F10618F0E01AF10A14
:1004000083952A9591F7BF91AF911F910F91089510
:100410000F93EF92FF92002797FF03C003950E946E
:10042000200277FF03C003950E9424020E94E4018A
:1004300000FF02C00E942002FF90EF900F910895EC
:10044000909581959F4F0895709561957F4F089580
:100450008F939F930F93082F092B21F480E30E9421
:1004600082010BC097FF07C08F938DE20E9482012B
:100470008F910E9420020E9441020F919F918F91C3
:100480000895082F092B79F08F939F936AE070E00D
:100490000E94E401EF920E9441028F91805D0E94D0
:1004A00082019F918F9108954F935F930F9300273F
:1004B00097FF03C003950E94B60277FF03C0039520
:1004C0000E94BA020E94A601982F872F00FF02C047
:1004D0000E94B6020F915F914F910895EF92FF92A3
:1004E0000F931F932F933F934F935F93CF93CC27FB
:1004F00097FF03C0C3950E94B60277FF03C0C39560
:100500000E94BA02262F372F44275527692F782FAC
:10051000862F662799270E94C801CB01C0FF02C021
:100520000E94B602CF915F914F913F912F911F9101
:100530000F91FF90EF9008954F935F936F93AF9358
:10054000BF93A62FA03019F480E091E009C0A1303C
:1005500039F0AC01AA95BA010E945402AA95D9F7C4
:10056000BF91AF916F915F914F9108959095819553
:100570009F4F0895709561957F4F08958F939F9336
:100580006F937F930F9397FF07C08F938DE20E9425
:1005900082018F910E94B6028F93892F90E00E9472
:1005A00028028F918F938EE20E9482018F91682F93
:1005B00070E0862F90E068EE73E00E94A601982F0D
:1005C000872F00E08436900728F48F9380E30E9401
:1005D00082018F9100E08A30900728F48F9380E3A6
:1005E0000E9482018F910E9428020F917F916F914A
:1005F0009F918F91089586179707A9F017C08617C6
:10060000970789F413C0681779076CF00FC0861735
:1006100097074CF00BC0861797072CF407C0681794
:1006200079070CF403C081E090E0089580E090E049
:1006300008950E94E401C70108954F935F936F935B
:10064000462F403019F481E090E00CC0413051F069
:100650004A95BC016F937F930E9494017F916F91A3
:100660004A95C1F76F915F914F9108950F9300E004
:100670000093FA010F9108950F93EF93FF93009168
:10068000FA01E2E3F1E0E00FF11DE00FF11D8193CB
:1006900090830091FA0103950093FA01FF91EF9185
:1006A0000F9108950F93EF93FF930091FA01061BAA
:1006B000E2E3F1E0E00FF11DE00FF11D8191908187
:1006C000FF91EF910F9108950F938093FB01909309
:1006D000FC0101E00093FD010F9108950F9300913B
:1006E000FD01013019F080E090E004C08091FB0131
:0C06F0009091FC010F910895F894FFCF49
:00000001FF
