:1000000000C008E00EBF0FEF0DBF11240E94450194
:1000100080E090E0809300019093010184E690E0FD
:10002000809301019093020188EC90E08093040199
:10003000909305018091000190910101809310013E
:100040009093110180911001909111010E94600123
:10005000809311019093120180910101909102010E
:1000600080931201909313018091120190911301DA
:100070000E946001809313019093140180E699E03F
:1000800080930301909304018091040190910501F4
:1000900080931401909315018091030190910401C4
:1000A00080930501909306018091140190911501B0
:1000B0006091050170910601861797070CF403C043
:1000C00080E090E002C081E090E080930601909390
:1000D00007018091060190910701892B09F475C0F1
:1000E0008091000190910101809307019093080194
:1000F0008091010190910201809308019093090180
:1001000080910701909108016091080170910901A7
:10011000860F971F8093090190930A01809109012E
:1001200090910A0180930201909303018091020152
:100130009091030180930A0190930B0180910A0131
:1001400090910B010E94600180930B0190930C0130
:10015000809101019091020180930C0190930D0117
:1001600080910C0190910D01809300019093010109
:10017000809102019091030180930D0190930E01F3
:1001800080910D0190910E018093010190930201E5
:10019000809104019091050180930E0190930F01CD
:1001A00080910E0190910F0164E670E0860F971F19
:1001B00080930F019093100180910F019091100195
:1001C00080930401909305015FCFFFCF2F933F935E
:1001D0004F935F9344275527869FA001969F500D0C
:1001E000879F500DCA0111245F914F913F912F912C
:1001F00008950F931F93AF93BF93AA27BB2701E1E5
:100200000A9561F0AA0FBB1F880F991FA11DA617A1
:10021000B70718F0A61BB70B8395F2CFBF91AF912C
:100220001F910F9108950F931F93AF93BF93AA2728
:10023000BB2701E10A9561F0AA0FBB1F880F991F28
:10024000A11DA617B70718F0A61BB70B8395F2CF11
:10025000CD01BF91AF911F910F9108954F935F937F
:10026000AC0181E090E0062F072B61F06F937F9344
:10027000BA010E94E6007F916F9161507040062F95
:10028000072BA1F75F914F91089500E00093C500FF
:1002900007E60093C40008E10093C10006E0009364
:1002A000C20008950091C00005FFFCCF8093C600F6
:1002B00008958DE00E9452018AE00E945201089543
:1002C000CF93DF938F939F9397FF0BC08DE20E9494
:1002D00052019F918F9180959095811D911D8F93D3
:1002E0009F938DE30E9452018EE30E9452010E946F
:0C02F00059019F918F91DF91CF910895EB
:1002FC0002020202020202020202020202020202D2
:06030C00020202020200E1
:00000001FF
