:100000000C9434000C943E000C943E000C943E0082
:100010000C943E000C943E000C943E000C943E0068
:100020000C943E000C943E000C943E000C943E0058
:100030000C943E000C943E000C943E000C943E0048
:100040000C943E000C943E000C943E000C943E0038
:100050000C943E000C943E000C943E000C943E0028
:100060000C943E000C943E0011241FBECFEFD8E04C
:10007000DEBFCDBF0E9467000C9486010C94000087
:1000800019C0000000000000000000000000000097
:100090000000000000000000000000000000000060
:1000A0000000000000000000000000000000000050
:1000B0000000000008E00EBF0FEF0DBF11240E94EA
:1000C000C00012E30FEF0A95F1F71A95D9F785E012
:1000D00090E00E94E7000E94DE0080930001909370
:1000E00001018AE090E00E94E7000E94DE00809318
:1000F0000E0190930F0188E090E00E94E7000E94BB
:10010000DE00809310019093110184E190E00E9441
:10011000E7000E94DE0080930201909303018AE0D1
:1001200090E00E94E7000E94DE008093040190931B
:10013000050180910A0190910B0180930601909333
:10014000070180910601909107010E94E7000E943B
:10015000DE00809308019093090180E090E0809395
:100160000A0190930B0180910A0190910B010E946A
:10017000E7000E94DE0080930C0190930D01FFCFF9
:100180000F931F931FB71F9300E00093C50007E66E
:100190000093C40008E10093C10006E00093C20090
:1001A0001F911FBF1F910F9108950F930091C000E1
:1001B00005FFFCCF8093C6000F9108958F938DE0CB
:1001C0000E94D5008AE00E94D5008F9108950F9378
:1001D0001F932F933F934F935F936F937F9397FF5B
:1001E0000AC08F939F938DE20E94D5009F918F91BB
:1001F000809590950196082F092B21F480E30E94A9
:10020000D50018C02227AC016AE077270E9432018E
:100210008C016AE077270E942301481B590B405D3F
:100220004F932395C801892B71F78F910E94D500B8
:100230002A95D9F77F916F915F914F913F912F91BF
:100240001F910F9108952F933F9322273327869F65
:100250009001969F300D879F300DC90111243F9169
:100260002F9108950F931F932F933F93062F072BE2
:1002700019F48FEF9FEF0FC02227332700E1880F7B
:10028000991F221F331F2617370718F0261B370B1D
:1002900083950A95A1F73F912F911F910F91089592
:1002A0004F935F936F937F93AC016F937F930E9403
:1002B00032017F916F910E942301481B590BCA01A3
:1002C0007F916F915F914F9108954F935F936F93DB
:1002D0007F93062F072B19F481E099270FC0AC01FB
:1002E00081E099276F937F93BA010E9423017F9148
:1002F0006F9161507040062F072BA1F77F916F918E
:100300005F914F910895861797070895F894FFCF4E
:1003100000000000000000000000000000000000DD
:020320000000DB
:00000001FF
