:1000000000C008E00EBF0FEF0DBF11240E943E009C
:1000100012E30FEF0A95F1F71A95D9F782E50E94DE
:10002000530080E50E9453008EE40E9453000E941A
:100030005C000E945C0000270093210161E070E0F9
:10004000A0912101BB27A61B0AF4A05FAA0FBB1F2A
:10005000AF5FBE4F8D919C91809300019093010101
:100060000E945C0086E40E94530089E40E945300D1
:100070008DE40E9453000E945C00FFCFF89400E0E2
:100080000093C50007E60093C40008E10093C10097
:1000900006E00093C20078941FEF0FEF0A95F1F786
:1000A0001A95D9F708950F930091C00005FFFCCF72
:1000B0008093C6000F9108958F938DE00E945300A6
:1000C0008AE00E9453008F9108958F93EF93FF93DE
:1000D0008591882319F00E945300FACFFF91EF9188
:1000E0008F9108950F931F932F933F934F935F9397
:1000F0006F937F93BC0197FF09C08F938DE20E949D
:1001000053008F91809590958F5F9F4F20E0082F2F
:10011000092B21F480E30E9453001BC08F939F930F
:100120006AE070E00E94C500AC016AE070E00E94E5
:10013000B2001F910F91081B190B005D0F932395BF
:10014000CA01082F092B51F78F910E9453002A955D
:10015000D9F77F916F915F914F913F912F911F91AF
:100160000F9108952F933F934F935F934427552703
:10017000869FA001969F500D879F500DCA011124A4
:100180005F914F913F912F9108950F931F93AF93DC
:10019000BF93062F072B19F48827992711C0AA2788
:1001A000BB2701E10A9561F0AA0FBB1F880F991FB9
:1001B000A11DA617B70718F0A61BB70B8395F2CFA2
:1001C000BF91AF911F910F9108950F931F93AF931C
:1001D000BF93062F072B19F48827992712C0AA2747
:1001E000BB2701E10A9561F0AA0FBB1F880F991F79
:1001F000A11DA617B70718F0A61BB70B8395F2CF62
:10020000CD01BF91AF911F910F9108954F935F93CF
:100210006F937F93062F072B19F481E090E00FC0B6
:10022000AC0181E090E06F937F93BA010E94B2002D
:100230007F916F9161507040062F072BA1F77F913E
:080240006F915F914F91089549
:1002480002000000000000000000000000000000A4
:100258000000000000000000000000000000000096
:02026800000193
:00000001FF
