:100000000C9434000C943E000C943E000C943E0082
:100010000C943E000C943E000C943E000C943E0068
:100020000C943E000C943E000C943E000C943E0058
:100030000C943E000C943E000C943E000C943E0048
:100040000C943E000C943E000C943E000C943E0038
:100050000C943E000C943E000C943E000C943E0028
:100060000C943E000C943E0011241FBECFEFD8E04C
:10007000DEBFCDBF0E9440000C9418020C9400001B
:10008000112408E00EBF0FEF0DBF0E94DC000E949C
:10009000AC0181E090E0809302019093030181E044
:1000A00090E00E94B20181E090E080930001909383
:1000B000010181E090E00E94B201809102019091E3
:1000C000030180930C0190930D0180910C0190919C
:1000D0000D0168E070E00E94850180930E0190930D
:1000E0000F0180910E0190910F01892B09F443C0FB
:1000F0008091000190910101809310019093110172
:100100008091020190910301809312019093130159
:100110008091100190911101609112017091130171
:100120000E94FD00809314019093150180911401A9
:10013000909115018093000190930101809102013B
:1001400090910301809316019093170180911601FD
:100150009091170161E070E0860F971F8093040172
:100160009093050180910401909105018093020113
:1001700090930301A2CF80910A0190910B010E94FC
:10018000B20180910001909101018093060190934A
:10019000070180910601909107010E94B2018091B0
:1001A0000601909107010E94F5010E94F4008093DE
:1001B000080190930901FFCF0F9300E00093C50061
:1001C00007E60093C40008E00093C10006E0009336
:1001D000C2000F9108950F930091C00005FFFCCF5E
:1001E0008093C6000F9108958F938DE00E94EB00DD
:1001F0008AE00E94EB008F9108952F933F934F93D5
:100200005F939C01AB01249FC001349F900D259FFB
:10021000900D11245F914F913F912F9108950F936D
:100220001F932F933F934F935F939C01AB016627DE
:10023000772788279927249FB001259F700D811D5E
:1002400000E0901F349F700D811D901F359F800D21
:10025000911D11245F914F913F912F911F910F910B
:100260000895AF93EE24FF2400271127A0E2660F24
:10027000771F881F991FEE1CFF1C001F111FE2161D
:10028000F3060407150728F0E21AF30A040B150B0E
:100290006395AA9561F7AF9108950F931F93AF935C
:1002A000BF93DC018B01E02EE12A19F48FEF9FEF61
:1002B00013C088279927EE24FF2420E1880F991F77
:1002C000AA0FBB1FEE1CFF1CE016F10618F0E01A87
:1002D000F10A83952A9591F7BF91AF911F910F91E4
:1002E000089586179707A9F017C08617970789F40E
:1002F00013C0681779076CF00FC0861797074CF08A
:100300000BC0861797072CF407C0681779070CF401
:1003100003C081E090E0089580E090E008950E949D
:100320004D01C70108954F935F936F93462F40305F
:1003300019F481E090E00CC0413051F04A95BC01C5
:100340006F937F930E94FD007F916F914A95C1F753
:100350006F915F914F9108950F9300E00093E0013A
:100360000F9108950F93EF93FF930091E001E8E15F
:10037000F1E0E00FF11DE00FF11D819390830091FA
:10038000E00103950093E001FF91EF910F91089533
:100390000F93EF93FF930091E001061BE8E1F1E07A
:1003A000E00FF11DE00FF11D81919081FF91EF9120
:1003B0000F9108950F938093E1019093E20101E082
:1003C0000093E3010F9108950F930091E301013031
:1003D00019F080E090E004C08091E1019091E20189
:1003E0000F9108950E944D0108958F939F930F934D
:1003F000082F092B21F480E30E94EB0002C00E9429
:1004000005020F919F918F910895082F092B79F084
:100410008F939F936AE070E00E944D01EF920E94DB
:1004200005028F91805D0E94EB009F918F9108954E
:04043000F894FFCF6E
:00000001FF
