:100000000C9434000C943E000C943E000C943E0082
:100010000C943E000C943E000C943E000C943E0068
:100020000C943E000C943E000C943E000C943E0058
:100030000C943E000C943E000C943E000C943E0048
:100040000C943E000C943E000C943E000C943E0038
:100050000C943E000C943E000C943E000C943E0028
:100060000C943E000C943E0011241FBECFEFD8E04C
:10007000DEBFCDBF0E9440000C9458020C940000DB
:10008000112408E00EBF0FEF0DBF0E941C010E945B
:10009000EC0181E090E0809302019093030181E004
:1000A00090E00E94F2010E9435020E943401809388
:1000B00004019093050181E090E08093000190930A
:1000C000010181E090E00E94F2010E9435020E944D
:1000D000340180931801909319018091020190914D
:1000E000030180931C0190931D0180911C0190914C
:1000F0001D0168E070E00E94C50180931E0190938D
:100100001F0180911E0190911F01892B09F459C094
:100110008091000190910101809320019093210131
:100120008091020190910301809322019093230119
:100130008091200190912101609122017091230111
:100140000E943D0180930601909307018091060172
:100150009091070180930001909301018091020129
:100160009091030180930801909309018091080107
:100170009091090161E070E0860F971F80930A015A
:1001800090930B0180910A0190910B0180930201E1
:1001900090930301809106019091070160910A01FB
:1001A00070910B010E943D0180930C0190930D0111
:1001B00080910C0190910D0180931A0190931B0185
:1001C0008CCF80911A0190911B010E94F2010E9434
:1001D00035020E94340180930E0190930F018091AB
:1001E0000001909101018093100190931101809181
:1001F0001001909111010E94F2010E9435020E94AB
:100200003401809312019093130161E070E00E9429
:10021000080280931401909315018091140190912C
:1002200015010E94F2010E9435020E943401809360
:10023000160190931701FFCF0F9300E00093C500C4
:1002400007E60093C40008E00093C10006E00093B5
:10025000C2000F9108950F930091C00005FFFCCFDD
:100260008093C6000F9108958F938DE00E942B011B
:100270008AE00E942B018F9108952F933F934F9313
:100280005F939C01AB01249FC001349F900D259F7B
:10029000900D11245F914F913F912F9108950F93ED
:1002A0001F932F933F934F935F939C01AB0166275E
:1002B000772788279927249FB001259F700D811DDE
:1002C00000E0901F349F700D811D901F359F800DA1
:1002D000911D11245F914F913F912F911F910F918B
:1002E0000895AF93EE24FF2400271127A0E2660FA4
:1002F000771F881F991FEE1CFF1C001F111FE2169D
:10030000F3060407150728F0E21AF30A040B150B8D
:100310006395AA9561F7AF9108950F931F93AF93DB
:10032000BF93DC018B01E02EE12A19F48FEF9FEFE0
:1003300013C088279927EE24FF2420E1880F991FF6
:10034000AA0FBB1FEE1CFF1CE016F10618F0E01A06
:10035000F10A83952A9591F7BF91AF911F910F9163
:10036000089586179707A9F017C08617970789F48D
:1003700013C0681779076CF00FC0861797074CF009
:100380000BC0861797072CF407C0681779070CF481
:1003900003C081E090E0089580E090E008950E941D
:1003A0008D01C70108954F935F936F93462F40309F
:1003B00019F481E090E00CC0413051F04A95BC0145
:1003C0006F937F930E943D017F916F914A95C1F792
:1003D0006F915F914F9108950F9300E00093EC01AE
:1003E0000F9108950F93EF93FF930091EC01E4E2D6
:1003F000F1E0E00FF11DE00FF11D8193908300917A
:10040000EC0103950093EC01FF91EF910F9108959A
:100410000F93EF93FF930091EC01061BE4E2F1E0F0
:10042000E00FF11DE00FF11D81919081FF91EF919F
:100430000F9108950F938093ED019093EE0101E0E9
:100440000093EF010F9108950F930091EF01013098
:1004500019F080E090E004C08091ED019091EE01F0
:100460000F9108950E948D0108958F939F930F938C
:10047000082F092B21F480E30E942B0102C00E9467
:1004800045020F919F918F910895082F092B79F0C4
:100490008F939F936AE070E00E948D01EF920E941B
:1004A00045028F91805D0E942B019F918F9108954D
:0404B000F894FFCFEE
:00000001FF
