:100000000C9434000C943E000C943E000C943E0082
:100010000C943E000C943E000C943E000C943E0068
:100020000C943E000C943E000C943E000C943E0058
:100030000C943E000C943E000C943E000C943E0048
:100040000C943E000C943E000C943E000C943E0038
:100050000C943E000C943E000C943E000C943E0028
:100060000C943E000C943E0011241FBECFEFD8E04C
:10007000DEBFCDBF0E9440000C9496040C9400009B
:10008000112408E00EBF0FEF0DBF0E945A030E941B
:10009000500481E090E0809312019093130181E07D
:1000A00090E00E9456040E94F2030E947203809323
:1000B00018019093190181E090E0809300019093E2
:1000C000010181E090E00E9456040E94F2030E9428
:1000D00072038093320190933301809112019091C9
:1000E00013018093500190935101809150019091A0
:1000F000510168E070E00E94290480936C019093A4
:100100006D0180916C0190916D01892B09F459C0AA
:10011000809100019091010180937C0190937D0179
:100120008091120190911301809386019093870131
:1001300080917C0190917D01609186017091870191
:100140000E947B0380931A0190931B0180911A01F6
:1001500090911B0180930001909301018091120105
:100160009091130180931C0190931D0180911C01BB
:1001700090911D0161E070E0860F971F80931E0132
:1001800090931F0180911E0190911F018093120195
:100190009093130180911A0190911B0160911E01AF
:1001A00070911F010E947B03809320019093210195
:1001B000809120019091210180934201909343010D
:1001C0008CCF80914201909143010E9456040E947D
:1001D000F2030E9472038093220190932301809185
:1001E0000001909101018093240190932501809159
:1001F000240190912501809316019093170180911D
:100200002401909125010E9456040E94F2030E944D
:100210007203809326019093270181E090E0809300
:1002200014019093150181E090E00E9456040E9411
:10023000F2030E947203809328019093290181E0C8
:1002400090E0809302019093030181E090E00E948E
:1002500056040E94F2030E94720380932A01909335
:100260002B0182E090E0809314019093150182E0CD
:1002700090E00E9456040E94F2030E947203809351
:100280002C0190932D0182E090E00E9456040E9480
:10029000F2030E94720380932E0190932F0161E07C
:1002A00070E00E946C048093300190933101809142
:1002B0003001909131018093040190930501809168
:1002C0003001909131010E9456040E94F2030E9475
:1002D0007203809334019093350183E090E0809322
:1002E00014019093150183E090E00E9456040E944F
:1002F000F2030E947203809336019093370180913C
:10030000040190910501809338019093390182E0B6
:1003100090E060913801709139010E947B038093D5
:100320003A0190933B0180913A0190913B010E94E8
:1003300056040E94F2030E94720380933C01909342
:100340003D0161E070E00E946C0480933E01909357
:100350003F0180913E0190913F018093060190936F
:10036000070180913E0190913F010E9456040E9436
:10037000F2030E947203809340019093410184E054
:1003800090E0809314019093150184E090E00E9426
:1003900056040E94F2030E947203809344019093DA
:1003A0004501809106019091070180934601909349
:1003B000470183E090E060914601709147010E94FF
:1003C0007B0380934801909349018091480190916B
:1003D00049010E9456040E94F2030E947203809316
:1003E0004A0190934B0161E070E00E946C0480939D
:1003F0004C0190934D0180914C0190914D0180935F
:1004000008019093090180914C0190914D010E9447
:1004100056040E94F2030E94720380934E0190934F
:100420004F0185E090E0809314019093150185E0E1
:1004300090E00E9456040E94F2030E94720380938F
:10044000520190935301809108019091090180938A
:1004500054019093550184E090E0609154017091B3
:1004600055010E947B038093560190935701809120
:100470005601909157010E9456040E94F2030E9477
:100480007203809358019093590161E070E00E94DB
:100490006C0480935A0190935B0180915A01909172
:1004A0005B0180930A0190930B0180915A01909116
:1004B0005B010E9456040E94F2030E947203809323
:1004C0005C0190935D0186E090E08093140190932D
:1004D000150186E090E00E9456040E94F2030E94FB
:1004E000720380935E0190935F0180910A01909165
:1004F0000B01809360019093610185E090E0609131
:100500006001709161010E947B038093620190936E
:10051000630180916201909163010E9456040E94E0
:10052000F2030E947203809364019093650161E07D
:1005300070E00E946C048093660190936701809143
:1005400066019091670180930C0190930D01809159
:100550006601909167010E9456040E94F2030E9476
:100560007203809368019093690187E090E0809323
:1005700014019093150187E090E00E9456040E94B8
:10058000F2030E94720380936A0190936B01809141
:100590000C0190910D0180936E0190936F0186E0A4
:1005A00090E060916E0170916F010E947B038093D7
:1005B00070019093710180917001909171010E947E
:1005C00056040E94F2030E9472038093720190937A
:1005D000730161E070E00E946C0480937401909359
:1005E0007501809174019091750180930E01909333
:1005F0000F0180917401909175010E9456040E9430
:10060000F2030E947203809376019093770188E051
:1006100090E0809314019093150188E090E00E948F
:1006200056040E94F2030E94720380937801909313
:10063000790180910E0190910F0180937A0190933E
:100640007B0187E090E060917A0170917B010E94CC
:100650007B0380937E0190937F0180917E01909136
:100660007F010E9456040E94F2030E94720380934D
:1006700080019093810161E070E00E946C0480939E
:1006800082019093830180918201909183018093F4
:1006900010019093110180918201909183010E9439
:1006A00056040E94F2030E94720380938401909387
:1006B0008501FFCF0F9300E00093C50007E600938C
:1006C000C40008E00093C10006E00093C2000F914F
:1006D00008950F930091C00005FFFCCF8093C600E2
:1006E0000F9108958F938DE00E9469038AE00E9424
:1006F00069038F9108952F933F934F935F939C01CC
:10070000AB01249FC001349F900D259F900D1124B3
:100710005F914F913F912F9108950F931F932F93C6
:100720003F934F935F939C01AB0166277727882700
:100730009927249FB001259F700D811D00E0901F17
:10074000349F700D811D901F359F800D911D1124C8
:100750005F914F913F912F911F910F910895AF930A
:10076000EE24FF2400271127A0E2660F771F881FC1
:10077000991FEE1CFF1C001F111FE216F306040751
:10078000150728F0E21AF30A040B150B6395AA95D6
:1007900061F7AF9108950F931F93AF93BF93DC015F
:1007A0008B01E02EE12A19F48FEF9FEF13C0882709
:1007B0009927EE24FF2420E1880F991FAA0FBB1F61
:1007C000EE1CFF1CE016F10618F0E01AF10A839502
:1007D0002A9591F7BF91AF911F910F9108950E94B3
:1007E000CB0308958F939F930F93082F092B21F428
:1007F00080E30E94690302C00E9402040F919F914E
:100800008F910895082F092B79F08F939F936AE0B9
:1008100070E00E94CB03EF920E9402048F91805DF2
:100820000E9469039F918F91089586179707A9F0F9
:1008300017C08617970789F413C0681779076CF0FB
:100840000FC0861797074CF00BC0861797072CF43C
:1008500007C0681779070CF403C081E090E00895A1
:1008600080E090E008950E94CB03C70108954F9364
:100870005F936F93462F403019F481E090E00CC0F5
:10088000413051F04A95BC016F937F930E947B03E6
:100890007F916F914A95C1F76F915F914F91089544
:1008A0000F9300E0009350020F9108950F93EF9380
:1008B000FF9300915002E8E8F1E0E00FF11DE00F36
:1008C000F11D819390830091500203950093500293
:1008D000FF91EF910F9108950F93EF93FF93009184
:1008E0005002061BE8E8F1E0E00FF11DE00FF11DFA
:1008F00081919081FF91EF910F9108950F938093D3
:1009000051029093520201E0009353020F91089517
:100910000F9300915302013019F080E090E004C081
:1009200080915102909152020F910895F894FFCF57
:00000001FF
