:100000000C9434000C943E000C943E000C943E0082
:100010000C943E000C943E000C943E000C943E0068
:100020000C943E000C943E000C943E000C943E0058
:100030000C943E000C943E000C943E000C943E0048
:100040000C943E000C943E000C943E000C943E0038
:100050000C943E000C943E000C943E000C943E0028
:100060000C943E000C943E0011241FBECFEFD8E04C
:10007000DEBFCDBF0E9440000C94BC030C94000076
:1000800008E00EBF0FEF0DBF0E94B3010E94760380
:1000900080E091E0809308019093090180E091E075
:1000A0000E947C030E94FE020E94CB0180930E01FD
:1000B00090930F0180E091E0809300019093010103
:1000C00080E091E00E947C030E94FE020E94CB012E
:1000D0008093280190932901809108019091090152
:1000E00080933A0190933B0180913C0190913D01B6
:1000F000892B09F459C080910001909101018093EE
:100100003E0190933F0180910801909109018093F5
:1001100040019093410180913E0190913F01609197
:100120004001709141010E949402809310019093CC
:100130001101809110019091110180930001909321
:10014000010180910801909109018093120190931F
:100150001301809112019091130160E071E0860F0C
:10016000971F809314019093150180911401909131
:1001700015018093080190930901809110019091DD
:10018000110160911401709115010E9494028093F5
:100190001601909317018091160190911701809399
:1001A00038019093390198CF8091380190913901AD
:1001B0000E947C030E94FE020E94CB0180931801E2
:1001C00090931901809100019091010180931A018F
:1001D00090931B0180911A0190911B0180930C0157
:1001E00090930D0180911A0190911B010E947C0354
:1001F0000E94FE020E94CB0180931C0190931D017E
:1002000080E091E080930A0190930B0180E091E0FF
:100210000E947C030E94FE020E94CB0180931E017B
:1002200090931F0180E091E080930201909303017D
:1002300080E091E00E947C030E94FE020E94CB01BC
:10024000809320019093210180E092E080930A0145
:1002500090930B0180E092E00E947C030E94FE02DA
:100260000E94CB01809322019093230180E092E0D1
:100270000E947C030E94FE020E94CB018093240115
:100280009093250161E070E00E9492038093260123
:10029000909327018091260190912701809304017A
:1002A0009093050180912601909127010E947C0383
:1002B0000E94FE020E94CB0180932A0190932B01A1
:1002C00080E093E080930A0190930B0180E093E03B
:1002D0000E947C030E94FE020E94CB0180932C01AD
:1002E00090932D01809104019091050180932E013E
:1002F00090932F0180E092E060912E0170912F0188
:100300000E949402809330019093310180913001DA
:10031000909131010E947C030E94FE020E94CB0159
:10032000809332019093330161E070E00E94920368
:10033000809334019093350180913401909135017F
:1003400080930601909307018091340190913501CB
:100350000E947C030E94FE020E94CB018093360122
:1003600090933701FFCF0F9300E00093C50007E69D
:100370000093C40008E00093C10006E00093C200AF
:100380000F9108950F930091C00005FFFCCF80935B
:10039000C6000F9108958F938DE00E94C2018AE0FC
:1003A0000E94C2018F9108952F933F934F935F93C3
:1003B0009C01AB01249FC001349F900D259F900D9F
:1003C00011245F914F913F912F9108950F931F93A7
:1003D0002F933F934F935F939C01AB016627772741
:1003E00088279927249FB001259F700D811D00E06B
:1003F000901F349F700D811D901F359F800D911DA2
:1004000011245F914F913F912F911F910F9108956A
:10041000AF93EE24FF2400271127A0E2660F771F79
:10042000881F991FEE1CFF1C001F111FE216F30608
:100430000407150728F0E21AF30A040B150B63955D
:10044000AA9561F7AF9108950F931F93AF93BF9350
:10045000DC018B01E02EE12A19F48FEF9FEF13C02E
:1004600088279927EE24FF2420E1880F991FAA0FDF
:10047000BB1FEE1CFF1CE016F10618F0E01AF10A93
:1004800083952A9591F7BF91AF911F910F91089590
:100490000F93EF92FF92002797FF03C003950E94EE
:1004A000600277FF03C003950E9464020E94240249
:1004B00000FF02C00E946002FF90EF900F9108952C
:1004C000909581959F4F0895709561957F4F089500
:1004D0008F939F930F93082F092B21F480E30E94A1
:1004E000C2010BC097FF07C08F938DE20E94C2012B
:1004F0008F910E9460020E9481020F919F918F91C3
:100500000895082F092B79F08F939F936AE070E08C
:100510000E942402EF920E9481028F91805D0E94CE
:10052000C2019F918F9108954F935F930F9300277E
:1005300097FF03C003950E94F60277FF03C003955F
:100540000E94FA020E94E601982F872F00FF02C046
:100550000E94F6020F915F914F910895EF92FF92E2
:100560000F931F932F933F934F935F93CF93CC277A
:1005700097FF03C0C3950E94F60277FF03C0C3959F
:100580000E94FA02262F372F44275527692F782FEC
:10059000862F662799270E940802CB01C0FF02C060
:1005A0000E94F602CF915F914F913F912F911F9141
:1005B0000F91FF90EF9008954F935F936F93AF93D8
:1005C000BF93A62FA03019F480E091E009C0A130BC
:1005D00039F0AC01AA95BA010E949402AA95D9F704
:1005E000BF91AF916F915F914F91089590958195D3
:1005F0009F4F0895709561957F4F08958F939F93B6
:100600006F937F930F9397FF07C08F938DE20E94A4
:10061000C2018F910E94F6028F93892F90E00E9471
:1006200068028F918F938EE20E94C2018F91682F92
:1006300070E0862F90E068EE73E00E94E601982F4C
:10064000872F00E08436900728F48F9380E30E9480
:10065000C2018F9100E08A30900728F48F9380E3E5
:100660000E94C2018F910E9468020F917F916F9149
:100670009F918F91089586179707A9F017C0861745
:10068000970789F413C0681779076CF00FC08617B5
:1006900097074CF00BC0861797072CF407C0681714
:1006A00079070CF403C081E090E0089580E090E0C9
:1006B00008950E942402C70108954F935F936F939A
:1006C000462F403019F481E090E00CC0413051F0E9
:1006D0004A95BC016F937F930E94D4017F916F91E3
:1006E0004A95C1F76F915F914F9108950F9300E084
:1006F00000930A020F9108950F93EF93FF930091D7
:100700000A02E2E4F1E0E00FF11DE00FF11D819338
:10071000908300910A02039500930A02FF91EF91E2
:100720000F9108950F93EF93FF9300910A02061B18
:10073000E2E4F1E0E00FF11DE00FF11D8191908105
:10074000FF91EF910F9108950F9380930B02909377
:100750000C0201E000930D020F9108950F93009198
:100760000D02013019F080E090E004C080910B028E
:0C07700090910C020F910895F894FFCFB7
:00000001FF
