:100000000C9434000C943E000C943E000C943E0082
:100010000C943E000C943E000C943E000C943E0068
:100020000C943E000C943E000C943E000C943E0058
:100030000C943E000C943E000C943E000C943E0048
:100040000C943E000C943E000C943E000C943E0038
:100050000C943E000C943E000C943E000C943E0028
:100060000C943E000C943E0011241FBECFEFD8E04C
:10007000DEBFCDBF0E9440000C94BA020C94000079
:1000800008E00EBF0FEF0DBF0E94B1000E94740286
:1000900080E09BEF0E947A020E94FC010E94C9004E
:1000A000809300019093010180E096EF0E947A0214
:1000B0000E94FC010E94C90080930E0190930F01E1
:1000C00080E098EF0E947A020E94FC010E94C90021
:1000D000809310019093110180E097EE0E947A02C4
:1000E0000E94FC010E94C9008093020190930301C9
:1000F00082E598ED0E947A020E94FC010E94C900EC
:10010000809304019093050161E070E00E949002E9
:100110008093060190930701809106019091070159
:100120000E947A020E94FC010E94C900809308018B
:100130009093090164E070E00E94900280930A01AC
:1001400090930B0180910A0190910B010E947A0219
:100150000E94FC010E94C90080930C0190930D0144
:10016000FFCF0F9300E00093C50007E60093C400A3
:1001700008E00093C10006E00093C2000F910895CB
:100180000F930091C00005FFFCCF8093C6000F9134
:1001900008958F938DE00E94C0008AE00E94C00005
:1001A0008F9108952F933F934F935F939C01AB01E1
:1001B000249FC001349F900D259F900D11245F91C5
:1001C0004F913F912F9108950F931F932F933F933A
:1001D0004F935F939C01AB01662777278827992768
:1001E000249FB001259F700D811D00E0901F349F5A
:1001F000700D811D901F359F800D911D11245F9101
:100200004F913F912F911F910F910895AF93EE243D
:10021000FF2400271127A0E2660F771F881F991F70
:10022000EE1CFF1C001F111FE216F3060407150742
:1002300028F0E21AF30A040B150B6395AA9561F7EF
:10024000AF9108950F931F93AF93BF93DC018B0180
:10025000E02EE12A19F48FEF9FEF13C0882799272A
:10026000EE24FF2420E1880F991FAA0FBB1FEE1C6C
:10027000FF1CE016F10618F0E01AF10A83952A95A2
:1002800091F7BF91AF911F910F9108950F93EF9246
:10029000FF92002797FF03C003950E945E0177FF3E
:1002A00003C003950E9462010E94220100FF02C068
:1002B0000E945E01FF90EF900F91089590958195B7
:1002C0009F4F0895709561957F4F08958F939F93E9
:1002D0000F93082F092B21F480E30E94C0000BC06C
:1002E00097FF07C08F938DE20E94C0008F910E94FC
:1002F0005E010E947F010F919F918F910895082FB9
:10030000092B79F08F939F936AE070E00E9422019D
:10031000EF920E947F018F91805D0E94C0009F91AB
:100320008F9108954F935F930F93002797FF03C01A
:1003300003950E94F40177FF03C003950E94F80122
:100340000E94E400982F872F00FF02C00E94F40152
:100350000F915F914F910895EF92FF920F931F932A
:100360002F933F934F935F93CF93CC2797FF03C077
:10037000C3950E94F40177FF03C0C3950E94F80162
:10038000262F372F44275527692F782F862F66274A
:1003900099270E940601CB01C0FF02C00E94F40110
:1003A000CF915F914F913F912F911F910F91FF90AE
:1003B000EF9008954F935F936F93AF93BF93A62FE2
:1003C000A03019F480E091E009C0A13039F0AC010F
:1003D000AA95BA010E949201AA95D9F7BF91AF914F
:1003E0006F915F914F910895909581959F4F0895DA
:1003F000709561957F4F08958F939F936F937F932F
:100400000F9397FF07C08F938DE20E94C0008F91DA
:100410000E94F4018F93892F90E00E9466018F91D2
:100420008F938EE20E94C0008F91682F70E0862F1C
:1004300090E068EE73E00E94E400982F872F00E0C0
:100440008436900728F48F9380E30E94C0008F9138
:1004500000E08A30900728F48F9380E30E94C00068
:100460008F910E9466010F917F916F919F918F9163
:10047000089586179707A9F017C08617970789F47C
:1004800013C0681779076CF00FC0861797074CF0F8
:100490000BC0861797072CF407C0681779070CF470
:1004A00003C081E090E0089580E090E008950E940C
:1004B0002201C70108954F935F936F93462F4030F9
:1004C00019F481E090E00CC0413051F04A95BC0134
:1004D0006F937F930E94D2007F916F914A95C1F7ED
:1004E0006F915F914F9108950F9300E00093DA01AF
:1004F0000F9108950F93EF93FF930091DA01E2E1DA
:10050000F1E0E00FF11DE00FF11D81939083009168
:10051000DA0103950093DA01FF91EF910F910895AD
:100520000F93EF93FF930091DA01061BE2E1F1E0F4
:10053000E00FF11DE00FF11D81919081FF91EF918E
:100540000F9108950F938093DB019093DC0101E0FC
:100550000093DD010F9108950F930091DD010130AB
:1005600019F080E090E004C08091DB019091DC0103
:080570000F910895F894FFCFEC
:00000001FF
