:100000000C9434000C943E000C943E000C943E0082
:100010000C943E000C943E000C943E000C943E0068
:100020000C943E000C943E000C943E000C943E0058
:100030000C943E000C943E000C943E000C943E0048
:100040000C943E000C943E000C943E000C943E0038
:100050000C943E000C943E000C943E000C943E0028
:100060000C943E000C943E0011241FBECFEFD8E04C
:10007000DEBFCDBF0E9440000C9453040C940000DE
:10008000112408E00EBF0FEF0DBF0E944A020E942C
:100090001A0380E890E080930C0190930D0180E8B2
:1000A00090E00E9420030E9416040E946202809346
:1000B0000E0190930F0180910C0190910D0180939E
:1000C0001C0190931D0180911C0190911D0162E023
:1000D00070E00E94F4038093360190933701809181
:1000E00036019091370160E072E00E94C603809370
:1000F0005801909359018091580190915901809332
:1001000002019093030180915801909159010E943E
:1001100020030E9416040E94620280935A01909369
:100120005B0180910C0190910D0180935C01909393
:100130005D0180915C0190915D0164E070E00E943E
:10014000F40380931001909311018091100190911C
:10015000110160E078E10E94C60380931201909340
:1001600013018091120190911301809304019093E7
:10017000050180911201909113010E9420030E94B9
:1001800016040E94620280931401909315018091DD
:100190000C0190910D0180931601909317018091AD
:1001A00016019091170166E070E00E94F4038093BD
:1001B000180190931901809118019091190160E044
:1001C00078E10E94C60380931A0190931B018091ED
:1001D0001A0190911B0160E07EE10E94C6038093AA
:1001E0001E0190931F0180911E0190911F01809329
:1001F00006019093070180911E0190911F010E94BA
:1002000020030E9416040E946202809320019093B2
:10021000210180910C0190910D0180932201909316
:100220002301809122019091230168E070E00E94F7
:10023000F4038093240190932501809124019091EF
:10024000250160E078E10E94C60380932601909327
:100250002701809126019091270160E07EE10E94B4
:10026000C6038093280190932901809128019091E1
:10027000290160E078E30E94C60380932A019093ED
:100280002B0180912A0190912B018093080190937A
:10029000090180912A0190912B010E9420030E9464
:1002A00016040E94620280932C0190932D0180918C
:1002B0000C0190910D0180932E0190932F0180915C
:1002C0002E0190912F016AE070E00E94F403809368
:1002D000300190933101809130019091310160E0C3
:1002E00078E10E94C603809332019093330180919C
:1002F00032019091330160E07EE10E94C603809359
:10030000340190933501809134019091350160E082
:1003100078E30E94C603809338019093390180915D
:1003200038019091390160E07AE50E94C60380931C
:100330003A0190933B0180913A0190913B01809367
:100340000A0190930B0180913A0190913B010E9428
:1003500020030E9416040E94620280933C01909345
:100360003D01809102019091030180933E019093A1
:100370003F0180E091E060913E0170913F01861B5A
:10038000970B8093400190934101809104019091DB
:100390000501809342019093430180914001909127
:1003A00041016091420170914301860F971F809334
:1003B000440190934501809106019091070180933B
:1003C00046019093470180914401909145016091CD
:1003D000460170914701861B970B809348019093CB
:1003E0004901809108019091090180934A019093FD
:1003F0004B01809148019091490160914A017091AF
:100400004B01860F971F80934C0190934D01809173
:100410000A0190910B0180934E0190934F018091BE
:100420004C0190914D0160914E0170914F01861BDE
:10043000970B8093500190935101809150019091BE
:10044000510180930001909301018091500190919E
:1004500051010E9420030E9416040E9462028093B0
:10046000520190935301809100019091010180937A
:1004700054019093550180915401909155010E942F
:1004800020030E9416040E946202809356019093FA
:100490005701FFCF0F9300E00093C50007E60093DC
:1004A000C40008E00093C10006E00093C2000F9171
:1004B00008950F930091C00005FFFCCF8093C60004
:1004C0000F9108958F938DE00E9459028AE00E9457
:1004D00059028F9108952F933F934F935F939C01FF
:1004E000AB01249FC001349F900D259F900D1124D6
:1004F0005F914F913F912F9108950F931F932F93E9
:100500003F934F935F939C01AB0166277727882722
:100510009927249FB001259F700D811D00E0901F39
:10052000349F700D811D901F359F800D911D1124EA
:100530005F914F913F912F911F910F910895AF932C
:10054000EE24FF2400271127A0E2660F771F881FE3
:10055000991FEE1CFF1C001F111FE216F306040773
:10056000150728F0E21AF30A040B150B6395AA95F8
:1005700061F7AF9108950F931F93AF93BF93DC0181
:100580008B01E02EE12A19F48FEF9FEF13C088272B
:100590009927EE24FF2420E1880F991FAA0FBB1F83
:1005A000EE1CFF1CE016F10618F0E01AF10A839524
:1005B0002A9591F7BF91AF911F910F9108958617DA
:1005C0009707A9F017C08617970789F413C0681713
:1005D00079076CF00FC0861797074CF00BC0861791
:1005E00097072CF407C0681779070CF403C081E063
:1005F00090E0089580E090E008950E94BB02C7015A
:1006000008954F935F936F93462F403019F481E024
:1006100090E00CC0413051F04A95BC016F937F933C
:100620000E946B027F916F914A95C1F76F915F9124
:100630004F9108950F9300E0009326020F910895C3
:100640000F93EF93FF9300912602EEE5F1E0E00FA8
:10065000F11DE00FF11D8193908300912602039517
:1006600000932602FF91EF910F9108950F93EF935E
:10067000FF9300912602061BEEE5F1E0E00FF11D6D
:10068000E00FF11D81919081FF91EF910F910895FD
:100690000F93809327029093280201E00093290290
:1006A0000F9108950F9300912902013019F080E015
:1006B00090E004C080912702909128020F91089544
:1006C0000F93EF92FF92002797FF03C003950E94BC
:1006D000780377FF03C003950E947C030E94BB024E
:1006E00000FF02C00E947803FF90EF900F910895E1
:1006F000909581959F4F0895709561957F4F0895CE
:100700008F939F930F93082F092B21F480E30E946E
:1007100059020BC097FF07C08F938DE20E945902C8
:100720008F910E9478030E9499030F919F918F915E
:100730000895082F092B79F08F939F936AE070E05A
:100740000E94BB02EF920E9499038F91805D0E94EC
:1007500059029F918F9108954F935F930F930027B4
:1007600097FF03C003950E940E0477FF03C0039513
:100770000E9412040E947D02982F872F00FF02C062
:100780000E940E040F915F914F910895EF92FF9296
:100790000F931F932F933F934F935F93CF93CC2748
:1007A00097FF03C0C3950E940E0477FF03C0C39553
:1007B0000E941204262F372F44275527692F782FA0
:1007C000862F662799270E949F02CB01C0FF02C097
:1007D0000E940E04CF915F914F913F912F911F91F5
:1007E0000F91FF90EF9008954F935F936F93AF93A6
:1007F000BF93A62FA03019F480E091E009C0A1308A
:1008000039F0AC01AA95BA010E94AC03AA95D9F7B8
:10081000BF91AF916F915F914F91089590958195A0
:100820009F4F0895709561957F4F08958F939F9383
:100830006F937F930F9397FF07C08F938DE20E9472
:1008400059028F910E940E048F93892F90E00E948D
:1008500080038F918F938EE20E9459028F91682FAF
:1008600070E0862F90E068EE73E00E947D02982F82
:10087000872F00E08436900728F48F9380E30E944E
:1008800059028F9100E08A30900728F48F9380E31B
:100890000E9459028F910E9480030F917F916F9166
:0A08A0009F918F910895F894FFCF07
:00000001FF
