:100000000C9434000C943E000C943E000C943E0082
:100010000C943E000C943E000C943E000C943E0068
:100020000C943E000C943E000C943E000C943E0058
:100030000C943E000C943E000C943E000C943E0048
:100040000C943E000C943E000C943E000C943E0038
:100050000C943E000C943E000C943E000C943E0028
:100060000C943E000C943E0011241FBECFEFD8E04C
:10007000DEBFCDBF0E9440000C941F040C94000012
:10008000112408E00EBF0FEF0DBF0E9416020E9460
:10009000E60280E890E080930C0190930D0180E8E7
:1000A00090E00E94EC0280910C0190910D018093F0
:1000B0000E0190930F0180910E0190910F0162E06B
:1000C00070E00E94C00380932801909329018091E1
:1000D00028019091290160E072E00E9492038093D0
:1000E0004801909349018091480190914901809382
:1000F00002019093030180914801909149010E946F
:10010000EC0280910C0190910D0180934C01909331
:100110004D0180914C0190914D0164E070E00E948E
:10012000C00380934E0190934F0180914E019091B6
:100130004F0160E078E10E94920380931001909358
:10014000110180911001909111018093040190930D
:10015000050180911001909111010E94EC028091A3
:100160000C0190910D0180931201909313018091E5
:1001700012019091130166E070E00E94C003809329
:10018000140190931501809114019091150160E084
:1001900078E10E9492038093160190931701809159
:1001A00016019091170160E07EE10E949203809316
:1001B0001801909319018091180190911901809371
:1001C00006019093070180911801909119010E94F6
:1001D000EC0280910C0190910D0180931A01909393
:1001E0001B0180911A0190911B0168E070E00E9450
:1001F000C00380931C0190931D0180911C0190917C
:100200001D0160E078E10E94920380931E019093AB
:100210001F0180911E0190911F0160E07EE10E940C
:10022000920380932001909321018091200190916D
:10023000210160E078E30E94920380932201909371
:1002400023018091220190912301809308019093D2
:10025000090180912201909123010E94EC0280917A
:100260000C0190910D0180932401909325018091C0
:100270002401909125016AE070E00E94C003809300
:10028000260190932701809126019091270160E03B
:1002900078E10E94920380932A0190932B01809130
:1002A0002A0190912B0160E07EE10E9492038093ED
:1002B0002C0190932D0180912C0190912D0160E0F3
:1002C00078E30E94920380932E0190932F018091F6
:1002D0002E0190912F0160E07AE50E9492038093B5
:1002E00030019093310180913001909131018093E0
:1002F0000A0190930B0180913001909131010E948D
:10030000EC0280910201909103018093320190935D
:10031000330180E091E06091320170913301861BDE
:10032000970B809334019093350180910401909153
:1003300005018093360190933701809134019091AB
:1003400035016091360170913701860F971F8093B8
:1003500038019093390180910601909107018093B3
:100360003A0190933B01809138019091390160915D
:100370003A0170913B01861B970B80933C0190934F
:100380003D01809108019091090180933E01909375
:100390003F0180913C0190913D0160913E0170913F
:1003A0003F01860F971F80934001909341018091F8
:1003B0000A0190910B018093420190934301809137
:1003C0004001909141016091420170914301861B6F
:1003D000970B809344019093450180914401909143
:1003E0004501809300019093010180914401909117
:1003F00045010E94EC0280910001909101018093DF
:1004000046019093470180914601909147010E94D7
:10041000EC0280914601909147010E94E2030E9404
:100420002E0280934A0190934B01FFCF0F9300E07F
:100430000093C50007E60093C40008E00093C100E4
:1004400006E00093C2000F9108950F930091C00041
:1004500005FFFCCF8093C6000F9108958F938DE028
:100460000E9425028AE00E9425028F9108952F9311
:100470003F934F935F939C01AB01249FC001349F36
:10048000900D259F900D11245F914F913F912F91D9
:1004900008950F931F932F933F934F935F939C0166
:1004A000AB016627772788279927249FB001259FCE
:1004B000700D811D00E0901F349F700D811D901FF5
:1004C000359F800D911D11245F914F913F912F9188
:1004D0001F910F910895AF93EE24FF240027112759
:1004E000A0E2660F771F881F991FEE1CFF1C001FDC
:1004F000111FE216F3060407150728F0E21AF30AA3
:10050000040B150B6395AA9561F7AF9108950F93AE
:100510001F93AF93BF93DC018B01E02EE12A19F406
:100520008FEF9FEF13C088279927EE24FF2420E147
:10053000880F991FAA0FBB1FEE1CFF1CE016F106C7
:1005400018F0E01AF10A83952A9591F7BF91AF91BF
:100550001F910F91089586179707A9F017C0861766
:10056000970789F413C0681779076CF00FC08617D6
:1005700097074CF00BC0861797072CF407C0681735
:1005800079070CF403C081E090E0089580E090E0EA
:1005900008950E948702C70108954F935F936F9358
:1005A000462F403019F481E090E00CC0413051F00A
:1005B0004A95BC016F937F930E9437027F916F91A0
:1005C0004A95C1F76F915F914F9108950F9300E0A5
:1005D000009318020F9108950F93EF93FF930091EA
:1005E0001802E0E5F1E0E00FF11DE00FF11D81934D
:1005F000908300911802039500931802FF91EF91E8
:100600000F9108950F93EF93FF9300911802061B2B
:10061000E0E5F1E0E00FF11DE00FF11D8191908127
:10062000FF91EF910F9108950F938093190290938A
:100630001A0201E000931B020F9108950F9300919D
:100640001B02013019F080E090E004C08091190293
:1006500090911A020F9108950F93EF92FF92002745
:1006600097FF03C003950E94440377FF03C00395DF
:100670000E9448030E94870200FF02C00E944403B8
:10068000FF90EF900F910895909581959F4F089559
:10069000709561957F4F08958F939F930F93082FC7
:1006A000092B21F480E30E9425020BC097FF07C0AD
:1006B0008F938DE20E9425028F910E9444030E9435
:1006C00065030F919F918F910895082F092B79F061
:1006D0008F939F936AE070E00E948702EF920E94DE
:1006E00065038F91805D0E9425029F918F910895EF
:1006F0004F935F930F93002797FF03C003950E94CA
:10070000DA0377FF03C003950E94DE030E944902CB
:10071000982F872F00FF02C00E94DA030F915F918C
:100720004F910895EF92FF920F931F932F933F9352
:100730004F935F93CF93CC2797FF03C0C3950E943D
:10074000DA0377FF03C0C3950E94DE03262F372FFD
:1007500044275527692F782F862F662799270E94CF
:100760006B02CB01C0FF02C00E94DA03CF915F9100
:100770004F913F912F911F910F91FF90EF9008950E
:100780004F935F936F93AF93BF93A62FA03019F44D
:1007900080E091E009C0A13039F0AC01AA95BA011E
:1007A0000E947803AA95D9F7BF91AF916F915F919D
:1007B0004F910895909581959F4F089570956195FB
:1007C0007F4F08958F939F936F937F930F9397FF1E
:1007D00007C08F938DE20E9425028F910E94DA0359
:1007E0008F93892F90E00E944C038F918F938EE21C
:1007F0000E9425028F91682F70E0862F90E068EEAE
:1008000073E00E944902982F872F00E084369007FA
:1008100028F48F9380E30E9425028F9100E08A30B4
:10082000900728F48F9380E30E9425028F910E9405
:100830004C030F917F916F919F918F910895F89440
:02084000FFCFE8
:00000001FF
