:100000000C9434000C943E000C943E000C943E0082
:100010000C943E000C943E000C943E000C943E0068
:100020000C943E000C943E000C943E000C943E0058
:100030000C943E000C943E000C943E000C943E0048
:100040000C943E000C943E000C943E000C943E0038
:100050000C943E000C943E000C943E000C943E0028
:100060000C943E000C943E0011241FBECFEFD8E04C
:10007000DEBFCDBF0E9440000C946F030C940000C3
:10008000112408E00EBF0FEF0DBF0E9466010E9411
:10009000360280E890E080930A0190930B0180E89B
:1000A00090E00E943C0280E091E0809302019093F6
:1000B000030180E091E00E943C0280910A0190914E
:1000C0000B01809318019093190180911801909170
:1000D000190162E070E00E94100380932A0190935E
:1000E0002B0180912A0190912B0160E072E00E9427
:1000F000E20280932C0190932D0180912C0190912C
:100100002D01809304019093050180912C01909121
:100110002D010E943C0280910A0190910B01809375
:100120002E0190932F0180912E0190912F0164E078
:1001300070E00E9410038093300190933101809110
:1001400030019091310160E078E10E94E2028093F9
:100150000C0190930D0180910C0190910D01809301
:1001600006019093070180910C0190910D010E946E
:100170003C0280910A0190910B0180930E019093B3
:100180000F0180910E0190910F0166E070E00E94D6
:1001900010038093100190931101809110019091B0
:1001A000110160E078E10E94E202809312019093D5
:1001B0001301809112019091130160E07EE10E9491
:1001C000E2028093140190931501809114019091A3
:1001D0001501809308019093090180911401909179
:1001E00015010E943C0280910201909103018093CD
:1001F000160190931701809104019091050180935D
:100200001A0190931B018091160190911701609142
:100210001A0170911B01861B970B80931C01909310
:100220001D01809106019091070180931E0190931A
:100230001F0180911C0190911D0160911E01709120
:100240001F01860F971F80932001909321018091B9
:1002500008019091090180932201909323018091DC
:100260002001909121016091220170912301861B50
:10027000970B809324019093250180912401909104
:1002800025018093000190930101809124019091B8
:1002900025010E943C028091000190910101809310
:1002A00026019093270180912601909127010E94B9
:1002B0003C0280912601909127010E9432030E9406
:1002C0007E018093280190932901FFCF0F9300E0D6
:1002D0000093C50007E60093C40008E00093C10046
:1002E00006E00093C2000F9108950F930091C000A3
:1002F00005FFFCCF8093C6000F9108958F938DE08A
:100300000E9475018AE00E9475018F9108952F93D4
:100310003F934F935F939C01AB01249FC001349F97
:10032000900D259F900D11245F914F913F912F913A
:1003300008950F931F932F933F934F935F939C01C7
:10034000AB016627772788279927249FB001259F2F
:10035000700D811D00E0901F349F700D811D901F56
:10036000359F800D911D11245F914F913F912F91E9
:100370001F910F910895AF93EE24FF2400271127BA
:10038000A0E2660F771F881F991FEE1CFF1C001F3D
:10039000111FE216F3060407150728F0E21AF30A04
:1003A000040B150B6395AA9561F7AF9108950F9310
:1003B0001F93AF93BF93DC018B01E02EE12A19F468
:1003C0008FEF9FEF13C088279927EE24FF2420E1A9
:1003D000880F991FAA0FBB1FEE1CFF1CE016F10629
:1003E00018F0E01AF10A83952A9591F7BF91AF9121
:1003F0001F910F91089586179707A9F017C08617C8
:10040000970789F413C0681779076CF00FC0861737
:1004100097074CF00BC0861797072CF407C0681796
:1004200079070CF403C081E090E0089580E090E04B
:1004300008950E94D701C70108954F935F936F936A
:10044000462F403019F481E090E00CC0413051F06B
:100450004A95BC016F937F930E9487017F916F91B2
:100460004A95C1F76F915F914F9108950F9300E006
:100470000093FA010F9108950F93EF93FF9300916A
:10048000FA01E2E3F1E0E00FF11DE00FF11D8193CD
:1004900090830091FA0103950093FA01FF91EF9187
:1004A0000F9108950F93EF93FF930091FA01061BAC
:1004B000E2E3F1E0E00FF11DE00FF11D8191908189
:1004C000FF91EF910F9108950F938093FB0190930B
:1004D000FC0101E00093FD010F9108950F9300913D
:1004E000FD01013019F080E090E004C08091FB0133
:1004F0009091FC010F9108950F93EF92FF920027C6
:1005000097FF03C003950E94940277FF03C00395F1
:100510000E9498020E94D70100FF02C00E9494022C
:10052000FF90EF900F910895909581959F4F0895BA
:10053000709561957F4F08958F939F930F93082F28
:10054000092B21F480E30E9475010BC097FF07C0BF
:100550008F938DE20E9475018F910E9494020E94F8
:10056000B5020F919F918F910895082F092B79F073
:100570008F939F936AE070E00E94D701EF920E94F0
:10058000B5028F91805D0E9475019F918F910895B2
:100590004F935F930F93002797FF03C003950E942B
:1005A0002A0377FF03C003950E942E030E9499013E
:1005B000982F872F00FF02C00E942A030F915F919E
:1005C0004F910895EF92FF920F931F932F933F93B4
:1005D0004F935F93CF93CC2797FF03C0C3950E949F
:1005E0002A0377FF03C0C3950E942E03262F372FBF
:1005F00044275527692F782F862F662799270E9431
:10060000BB01CB01C0FF02C00E942A03CF915F91C2
:100610004F913F912F911F910F91FF90EF9008956F
:100620004F935F936F93AF93BF93A62FA03019F4AE
:1006300080E091E009C0A13039F0AC01AA95BA017F
:100640000E94C802AA95D9F7BF91AF916F915F91AF
:100650004F910895909581959F4F0895709561955C
:100660007F4F08958F939F936F937F930F9397FF7F
:1006700007C08F938DE20E9475018F910E942A031B
:100680008F93892F90E00E949C028F918F938EE22E
:100690000E9475018F91682F70E0862F90E068EEC0
:1006A00073E00E949901982F872F00E0843690070D
:1006B00028F48F9380E30E9475018F9100E08A30C7
:1006C000900728F48F9380E30E9475018F910E9418
:1006D0009C020F917F916F919F918F910895F89453
:0206E000FFCF4A
:00000001FF
