:100000000C9434000C943E000C943E000C943E0082
:100010000C943E000C943E000C943E000C943E0068
:100020000C943E000C943E000C943E000C943E0058
:100030000C943E000C943E000C943E000C943E0048
:100040000C943E000C943E000C943E000C943E0038
:100050000C943E000C943E000C943E000C943E0028
:100060000C943E000C943E0011241FBECFEFD8E04C
:10007000DEBFCDBF0E9440000C9405160C9400001A
:10008000112408E00EBF0FEF0DBF0E94FC130E9469
:10009000CC1480E094E680931E0190931F0180E0D1
:1000A00094E60E94D21480E092E380932001909322
:1000B000210180E092E30E94D21480E099E18093D4
:1000C00022019093230180E099E10E94D21484E2FE
:1000D00093E0809318019093190184E293E00E94C9
:1000E000D21487EB92E080930C0190930D0187EB83
:1000F00092E00E94D21464E070E00E94E8148093C1
:1001000094039093950380919403909195030E949A
:10011000D21480919403909195030E94C8150E9477
:1001200014148093F6039093F70380911E0190912D
:100130001F018093080490930904809120019091FD
:10014000210180931C0490931D04809108049091D8
:10015000090460911C0470911D04860F971F809301
:100160002401909325018091220190912301809395
:100170003201909333018091240190912501609187
:10018000320170913301861B970B8093420190934B
:10019000430180914201909143010E94D2148091C9
:1001A0004201909143010E94C8150E94141480934B
:1001B0004E0190934F0180911E0190911F018093F9
:1001C0005C0190935D0180912001909121018093C9
:1001D00070019093710180915C0190915D0160913B
:1001E0007001709171010E945E1580937A01909365
:1001F0007B01809122019091230180938001909353
:10020000810180917A0190917B01609180017091D0
:1002100081010E941215809386019093870180913D
:100220008601909187010E94D2148091860190915D
:1002300087010E94C8150E9414148093980190931E
:10024000990180911E0190911F018093AA019093C2
:10025000AB018091AA019091AB0162E070E00E9435
:10026000A6158093D0019093D101809120019091A7
:1002700021018093E6019093E7018091E60190913E
:10028000E70162E070E00E94A6158093040290935B
:1002900005028091D0019091D1016091040270918A
:1002A0000502860F971F8093160290931702809184
:1002B0001602909117020E94D2148091160290911A
:1002C00017020E94C8150E9414148093280290936C
:1002D0002902809118019091190180933C0290931A
:1002E0003D0280913C0290913D0260E072E00E94EC
:1002F0005E1580935C0290935D0280915C02909108
:100300005D026AE070E00E94A61580937C029093E3
:100310007D0280917C0290917D020E94D214809196
:100320007C0290917D020E94C8150E941414809353
:1003300088029093890280910C0190910D01809325
:1003400094029093950280911E0190911F018093D9
:100350009C0290939D0280912001909121018093B5
:10036000A8029093A90280919C0290919D026091B5
:10037000A8027091A9020E9478158093B20290930E
:10038000B30280919402909195026091B2027091B3
:10039000B302860F971F8093BC029093BD02809199
:1003A000BC029091BD020E94D2148091BC02909137
:1003B000BD020E94C8150E9414148093C802909335
:1003C000C90280911E0190911F018093D2029093E7
:1003D000D30280912001909121018093DE029093BD
:1003E000DF028091D2029091D3026091DE0270917F
:1003F000DF02860F971F8093E6029093E7028091B9
:100400002201909123018093F2029093F302809154
:10041000E6029091E7026091F2027091F3020E946D
:1004200099148093FC029093FD028091FC029091BC
:10043000FD020E94D2148091FC029091FD020E9464
:10044000C8150E94141480930603909307038091AB
:100450001E0190911F0180931203909313038091CA
:1004600020019091210180931C0390931D038091A2
:10047000220190912301809324039093250380917E
:100480001C0390911D036091240370912503860F36
:10049000971F80932E0390932F03809112039091C6
:1004A000130360912E0370912F03860F971F809383
:1004B000380390933903809138039091390360E0B9
:1004C00074E60E94A11480934603909347038091A1
:1004D0004603909147030E94D21480914603909165
:1004E00047030E94C8150E94141480934E039093F2
:1004F0004F038091180190911901809358039093B4
:10050000590380910C0190910D01809364039093A5
:100510006503809158039091590360916403709131
:1005200065030E94991480936C0390936D038091EE
:100530006C0390916D03892B09F401C000C0809178
:100540007803909179030E94D21480911E019091BA
:100550001F018093960390939703809120019091BF
:1005600021018093A0039093A10380919603909121
:1005700097036091A0037091A1030E94A615809338
:10058000AC039093AD03809122019091230180935D
:10059000B4039093B5038091AC039091AD03609147
:1005A000B4037091B5030E94AF148093C00390937D
:1005B000C1038091C0039091C1030E94D214809125
:1005C000C0039091C1030E94C8150E941414809327
:1005D000CA039093CB0380912201909123018093D1
:1005E000D2039093D3038091D2039091D30360E020
:1005F00074E00E9412158093E0039093E1038091D0
:100600001E0190911F018093EC039093ED03809164
:10061000EC039091ED0360E075E00E947815809303
:10062000F8039093F9038091E0039091E1036091C6
:10063000F8037091F903861B970B8093FA0390934C
:10064000FB038091FA039091FB030E94D2148091E6
:10065000FA039091FB030E94C8150E941414809322
:10066000FC039093FD0380911E0190911F018093E4
:10067000FE039093FF0380912001909121018093CC
:100680000004909301048091FE039091FF03609118
:100690000004709101040E9412158093020490934B
:1006A000030480912201909123018093040490938C
:1006B00005048091020490910304609104047091F8
:1006C00005040E9478158093060490930704809196
:1006D00006049091070460E072E00E945E1580932A
:1006E0000A0490930B0480910A0490910B040E94D9
:1006F000D21480910A0490910B040E94C8150E94A4
:10070000141480930C0490930D0480911E01909119
:100710001F0180930E0490930F048091200190910B
:100720002101809310049093110480910E04909104
:100730000F0460911004709111040E947815809349
:1007400012049093130480912201909123018093CD
:10075000140490931504809114049091150460E0A2
:1007600072E00E94121580931604909317048091F2
:100770001204909113046091160470911704861B63
:10078000970B80931804909319048091180490910A
:1007900019040E94D21480911804909119040E94A7
:1007A000C8150E94141480931A0490931B0480911E
:1007B0001E0190911F0180931E0490931F0480914D
:1007C0001E0490911F0460E072E30E9499148093CC
:1007D0002004909321048091200490912104892B7E
:1007E00009F409C080911E0190911F018093240497
:1007F0009093250408C080911E0190911F01809361
:1008000026049093270480912204909123040E944F
:10081000D214809120019091210180932601909320
:1008200027018091220190912301809328019093C8
:1008300029018091260190912701609128017091F2
:1008400029010E94911480932A0190932B01809199
:100850002A0190912B01892B09F401C000C08091DD
:100860002C0190912D010E94D21480E090E08093A1
:1008700012019093130180E090E00E94D2148091C5
:100880001201909113018093300190933101809176
:1008900030019091310160E07AE00E949D148093D4
:1008A0003401909335018091340190913501892B69
:1008B00009F41DC0809112019091130180933601BB
:1008C00090933701809136019091370160E071E09B
:1008D000860F971F809338019093390180913801DA
:1008E000909139018093120190931301C8CF8091A8
:1008F0002E0190912F010E94D214809112019091AB
:10090000130180933A0190933B0180913A019091B9
:100910003B010E94D21480913A0190913B010E94C8
:10092000C8150E94141480933C0190933D0180E00F
:1009300091E0809308019093090180E091E00E948A
:10094000D214809108019091090180934001909305
:100950004101809140019091410160E075E00E9469
:10096000A514809344019093450180914401909196
:100970004501892B09F41DC080910801909109015E
:1009800080934601909347018091460190914701E1
:1009900060E072E00E945E158093480190934901E7
:1009A0008091480190914901809308019093090139
:1009B000C8CF80913E0190913F010E94D214809156
:1009C00008019091090180934A0190934B01809115
:1009D0004A0190914B010E94D21480914A0190915A
:1009E0004B010E94C8150E94141480934C019093EF
:1009F0004D0180E094E90E94D21480E094E90E94C5
:100A0000C8150E9414148093500190935101809155
:100A10001E0190911F018093520190935301809188
:100A20002001909121018093540190935501809170
:100A30005201909153016091540170915501860FBC
:100A4000971F809356019093570180915601909182
:100A5000570160E072E00E94121580935801909354
:100A6000590180915801909159010E94D2148091AE
:100A70005801909159010E94C8150E941414809346
:100A80005A0190935B018091180190911901809314
:100A90005E0190935F0180915E0190915F0160E043
:100AA00072E00E945E1580936001909361018091D5
:100AB0001E0190911F0180936201909363018091C8
:100AC00060019091610160916201709163010E94E7
:100AD0005E1580936401909365018091640190910B
:100AE00065010E94D21480916401909165010E9479
:100AF000C8150E9414148093660190936701809139
:100B00001E0190911F01809368019093690180916B
:100B100020019091210180936A0190936B01809153
:100B200068019091690160916A0170916B010E9466
:100B3000121580936C0190936D018091200190912A
:100B4000210180936E0190936F0180912201909119
:100B50002301809372019093730180916E019091B3
:100B60006F0160917201709173010E941215809360
:100B700074019093750180916C0190916D01609169
:100B80007401709175010E945E15809376019093B7
:100B9000770180917601909177010E94D214809123
:100BA0007601909177010E94C8150E9414148093D9
:100BB00078019093790180E091E080930001909317
:100BC000010180E091E00E94D21480E093E08093E4
:100BD00006019093070180E093E00E94D21480E028
:100BE00094E080930A0190930B0180E094E00E94CE
:100BF000D21480E095E080930E0190930F0180E085
:100C000095E00E94D21480E095E0809304019093D7
:100C1000050180E095E00E94D21480E092E080938C
:100C200002019093030180E092E00E94D21480E0E0
:100C300092E080931C0190931D0180E092E00E945D
:100C4000D21485E590E00E94D21485E590E00E94E0
:100C5000C8150E94141480937C0190937D018AEA48
:100C600090E00E94D2148AEA90E00E94C8150E9487
:100C7000141480937E0190937F0185ED90E00E9493
:100C8000D21485ED90E00E94C8150E941414809340
:100C900082019093830184E293E00E94D21484E263
:100CA00093E00E94C8150E941414809384019093CD
:100CB000850184E293E00E94D21484E293E00E94D2
:100CC000C8150E9414148093880190938901809123
:100CD0001E0190911F0180938A0190938B0180E007
:100CE00090E060918A0170918B01861B970B809335
:100CF0008C0190938D0180918C0190918D010E94C7
:100D0000D21480918C0190918D010E94C8150E948F
:100D1000141480938E0190938F0180912001909103
:100D200021018093900190939101809122019091F3
:100D3000230180939201909393018091900190916F
:100D400091016091920170919301860F971F80939A
:100D500094019093950180E090E0609194017091EE
:100D60009501861B970B8093960190939701809134
:100D70009601909197010E94D214809196019091D2
:100D800097010E94C8150E94141480939A019093B1
:100D90009B0161E070E00E94E81480939C019093B5
:100DA0009D0180919C0190919D010E94D21480919F
:100DB0009C0190919D010E94C8150E94141480937B
:100DC0009E0190939F018091000190910101809379
:100DD000A0019093A101809104019091050180935D
:100DE000A2019093A3018091A0019091A101609133
:100DF000A2017091A301861B970B8093A40190938D
:100E0000A5018091A4019091A50160E070E00E948D
:100E10009D148093A6019093A7018091A6019091C3
:100E2000A7010E94D2148091A6019091A7010E946F
:100E3000C8150E9414148093A8019093A901809171
:100E40000001909101018093AC019093AD018091DC
:100E50000401909105018093AE019093AF018091C0
:100E6000AC019091AD016091AE017091AF01860F20
:100E7000971F8093B0019093B101809106019091EA
:100E800007018093B2019093B3018091B0019091DA
:100E9000B1016091B2017091B3010E945E1580931F
:100EA000B4019093B5018091B4019091B5010E9475
:100EB000D2148091B4019091B5010E94C8150E948E
:100EC00014148093B6019093B70161E070E00E9422
:100ED000E8148093B8019093B9018091B801909182
:100EE000B9010E94D2148091B8019091B9010E9479
:100EF000C8150E9414148093BA019093BB0180918D
:100F00000001909101018093BC019093BD018091FB
:100F10000401909105018093BE019093BF018091DF
:100F2000BC019091BD016091BE017091BF010E9412
:100F30005E158093C0019093C1018091060190914C
:100F400007018093C2019093C3018091C0019091E9
:100F5000C1016091C2017091C301860F971F8093F8
:100F6000C4019093C5018091C4019091C5010E9474
:100F7000D2148091C4019091C5010E94C8150E94AD
:100F800014148093C6019093C70161E070E00E9441
:100F9000E8148093C8019093C9018091C801909191
:100FA000C9010E94D2148091C8019091C9010E9488
:100FB000C8150E9414148093CA019093CB018091AC
:100FC0000001909101018093CC019093CD0180911B
:100FD0000401909105018093CE019093CF018091FF
:100FE000CC019091CD016091CE017091CF01860F1F
:100FF000971F8093D2019093D30180910601909125
:1010000007018093D4019093D5018091D2019091F2
:10101000D3016091D4017091D5010E945E15809337
:10102000D6019093D70180910A0190910B01809392
:10103000D8019093D9018091D6019091D701609108
:10104000D8017091D901860F971F8093DA01909390
:10105000DB018091DA019091DB010E94D214809132
:10106000DA019091DB010E94C8150E94141480934C
:10107000DC019093DD01809100019091010180934A
:10108000DE019093DF01809104019091050180932E
:10109000E0019093E1018091DE019091DF01609188
:1010A000E0017091E1010E945E158093E20190934E
:1010B000E30180910601909107018093E4019093F0
:1010C000E5018091E2019091E3016091E40170916A
:1010D000E501860F971F8093E8019093E9018091C5
:1010E0000A0190910B018093EA019093EB018091AA
:1010F000E8019091E9016091EA017091EB010E9491
:101100005E158093EC019093ED018091EC0190913C
:10111000ED010E94D2148091EC019091ED010E94AA
:10112000C8150E9414148093EE019093EF0161E0C2
:1011300070E00E94E8148093F0019093F101809197
:10114000F0019091F1010E94D2148091F0019091F0
:10115000F1010E94C8150E9414148093F20190932B
:10116000F30180E09AE0809316019093170180E0EC
:101170009AE00E94D21480911601909117018093F9
:10118000F6019093F7018091F6019091F70160E0EC
:1011900070E00E9499148093F8019093F901809176
:1011A000F8019091F901892B09F41DC08091160175
:1011B000909117018093FA019093FB018091FA01BD
:1011C0009091FB0160E071E0861B970B8093FC011E
:1011D0009093FD018091FC019091FD018093160197
:1011E00090931701C8CF8091F4019091F5010E946E
:1011F000D21480911601909117018093FE01909373
:10120000FF018091FE019091FF010E94D214809114
:10121000FE019091FF010E94C8150E941414809352
:1012200000029093010280E090E080931A01909375
:101230001B0180E090E00E94D21461E070E00E9407
:10124000E81480930202909303028091020290912D
:1012500003020E94D21480910202909103020E9424
:10126000C8150E941414809306029093070280E030
:1012700091E0809312019093130180E091E00E942D
:10128000D214809112019091130180930A029093DD
:101290000B0280910A0290910B0260E07AE00E94BA
:1012A000A51480930C0290930D0280910C029091F2
:1012B0000D02892B09F443C080911A0190911B0102
:1012C00080930E0290930F0280911201909113016E
:1012D000809310029093110280910E0290910F0260
:1012E0006091100270911102860F971F8093120275
:1012F00090931302809112029091130280931A012D
:1013000090931B018091120190911301809314021C
:1013100090931502809114029091150260E071E0A3
:10132000860F971F809318029093190280911802DC
:10133000909119028093120190931301A2CF809192
:101340000802909109020E94D21480911A01909192
:101350001B0180931A0290931B0280911A029091B4
:101360001B020E94D21480911A0290911B020E94CB
:10137000C8150E94141480931C0290931D02809142
:101380001E0190911F0180931E0290931F02809175
:10139000200190912101809320029093210280915D
:1013A0001E0290911F0260912002709121020E9402
:1013B0001215809322029093230280912001909134
:1013C0002101809324029093250280912202909122
:1013D000230260912402709125020E945E15809381
:1013E00026029093270280911E0190911F01809305
:1013F0002A0290932B0280912602909127026091FD
:101400002A0270912B02861B970B80932C029093DB
:101410002D0280912C0290912D020E94D214809175
:101420002C0290912D020E94C8150E9414148093E2
:101430002E0290932F0280911E0190911F018093A4
:10144000300290933102809120019091210180938C
:101450003202909333028091300290913102609178
:10146000320270913302860F971F8093340290935B
:10147000350280912201909123018093360290934E
:101480003702809136029091370260E07AE0860F51
:10149000971F809338029093390280913402909183
:1014A000350260913802709139020E945E15809376
:1014B0003A0290933B028091000190910101809348
:1014C0003E0290933F028091040190910501809328
:1014D00040029093410280913E0290913F026091C0
:1014E000400270914102860F971F809342029093B1
:1014F00043028091060190910701809344029093EA
:101500004502809144029091450260E071E00E94A2
:101510005E1580934602909347028091420290911B
:10152000430260914602709147020E941215809317
:1015300048029093490280913A0290913B02609157
:10154000480270914902861B970B80934A02909340
:101550004B0280914A0290914B020E94D2148091DA
:101560004A0290914B020E94C8150E941414809365
:101570004C0290934D0280E095E08093120190938D
:10158000130180E095E00E94D21480E091E0809306
:1015900010019093110180E091E00E94D21480919B
:1015A0001201909113018093500290935102809107
:1015B00050029091510260E070E00E949914809373
:1015C0005202909353028091520290915302892BC0
:1015D00009F443C08091100190911101809354024D
:1015E00090935502809112019091130180935602BD
:1015F0009093570280915402909155026091560247
:10160000709157020E945E15809358029093590280
:10161000809158029091590280931001909311018A
:10162000809112019091130180935A0290935B0272
:1016300080915A0290915B0260E071E0861B970BEB
:1016400080935E0290935F0280915E0290915F02B0
:101650008093120190931301A2CF80914E0290913A
:101660004F020E94D2148091100190911101809339
:1016700060029093610280916002909161020E94E9
:10168000D21480916002909161020E94C8150E945C
:101690001414809362029093630280E094E6809336
:1016A00014019093150180E094E60E94D21480E02A
:1016B00090E0809308019093090180E090E00E94FF
:1016C000D21480E090E080931A0190931B0180E097
:1016D00090E00E94D21480910801909109018093BA
:1016E0006602909367028091140190911501809396
:1016F00068029093690280916602909167026091FE
:101700006802709169020E949D1480936A0290930E
:101710006B0280916A0290916B02892B09F427C0B9
:1017200080911A0190911B0180936C0290936D023D
:10173000809108019091090180936E0290936F024D
:1017400080916C0290916D0260916E0270916F02B7
:10175000860F971F809370029093710280917002A0
:101760009091710280931A0190931B01B4CF8091E4
:101770006402909165020E94D21480911A019091A6
:101780001B01809372029093730280917202909178
:1017900073020E94D21480917202909173020E948F
:1017A000C8150E941414809374029093750280915E
:1017B0001A0190911B018093760290937702809199
:1017C00076029091770260E072E00E941215809399
:1017D0007802909379028091100190911101809389
:1017E0007A0290937B0280917A0290917B0260E072
:1017F00072E00E94121580937E0290937F02809186
:1018000078029091790260917E0270917F02860F3A
:10181000971F809380029093810280918002909123
:10182000810260E874EF0E947815809382029093A1
:10183000830280918202909183020E94D21480914F
:101840008202909183020E94C8150E941414809312
:1018500084029093850280E09EE10E94D21480E091
:101860009EE10E94C8150E941414809386029093F2
:10187000870261E070E00E94E81480938A029093EE
:101880008B0280918A0290918B020E94D2148091E7
:101890008A0290918B020E94C8150E9414148093B2
:1018A0008C0290938D0280E09BE40E94D21480E031
:1018B0009BE40E94C8150E94141480938E0290939A
:1018C0008F0261E070E00E94E81480939002909390
:1018D000910280919002909191020E94D214809185
:1018E0009002909191020E94C8150E941414809356
:1018F00092029093930280E098E70E94D21480E0D5
:1019000098E70E94C8150E94141480939602909341
:10191000970261E070E00E94E8148093980290932F
:10192000990280919802909199020E94D21480911C
:101930009802909199020E94C8150E9414148093F5
:101940009A0290939B0280E092E30E94D21480E07E
:1019500092E30E94C8150E94141480939E029093F3
:101960009F0261E070E00E94E8148093A0029093CF
:10197000A1028091A0029091A1020E94D2148091B4
:10198000A0029091A1020E94C8150E941414809395
:10199000A2029093A30280E099E10E94D21480E019
:1019A00099E10E94C8150E9414148093A402909398
:1019B000A50261E070E00E94E8148093A602909373
:1019C000A7028091A6029091A7020E94D214809152
:1019D000A6029091A7020E94C8150E941414809339
:1019E000AA029093AB0280E091E00E94D21480E0C2
:1019F00091E00E94C8150E9414148093AC02909349
:101A0000AD0261E070E00E94E8148093AE02909312
:101A1000AF028091AE029091AF020E94D2148091E9
:101A2000AE029091AF020E94C8150E9414148093D8
:101A3000B0029093B10280E090E40E94D21480E062
:101A400090E40E94C8150E9414148093B4029093ED
:101A5000B50261E070E00E94E8148093B6029093B2
:101A6000B7028091B6029091B7020E94D214809181
:101A7000B6029091B7020E94C8150E941414809378
:101A8000B8029093B90280E09DE70E94D21480E0F2
:101A90009DE70E94C8150E9414148093BA02909387
:101AA000BB0261E070E00E94E8148093BE02909354
:101AB000BF028091BE029091BF020E94D214809119
:101AC000BE029091BF020E94C8150E941414809318
:101AD000C0029093C10280E091E00E94D21480E0A5
:101AE00091E00E94C8150E9414148093C202909342
:101AF000C30261E070E00E94E8148093C4029093F6
:101B0000C5028091C4029091C5020E94D2148091B6
:101B1000C4029091C5020E94C8150E9414148093BB
:101B2000C6029093C70280E091E00E94D21480E048
:101B300091E00E94C8150E9414148093CA029093E9
:101B4000CB0261E070E00E94E8148093CC02909395
:101B5000CD028091CC029091CD020E94D21480914E
:101B6000CC029091CD020E94C8150E94141480935B
:101B7000CE029093CF0280E091E00E94D21480E0E8
:101B800091E00E94C8150E9414148093D002909393
:101B9000D10261E070E00E94E8148093D402909337
:101BA000D5028091D4029091D5020E94D2148091E6
:101BB000D4029091D5020E94C8150E9414148093FB
:101BC000D6029093D70280E091E00E94D21480E088
:101BD00091E00E94C8150E9414148093D80290933B
:101BE000D90261E070E00E94E8148093DA029093D9
:101BF000DB028091DA029091DB020E94D214809184
:101C0000DA029091DB020E94C8150E94141480939E
:101C1000DC029093DD0280E091E00E94D21480E02B
:101C200091E00E94C8150E9414148093E0029093E2
:101C3000E10261E070E00E94E8148093E202909378
:101C4000E3028091E2029091E3020E94D21480911B
:101C5000E2029091E3020E94C8150E94141480933E
:101C6000E4029093E50280E090E00E94D21480E0CC
:101C700090E00E94C8150E9414148093E80290938B
:101C8000E90261E070E00E94E8148093EA02909318
:101C9000EB028091EA029091EB020E94D2148091B3
:101CA000EA029091EB020E94C8150E9414148093DE
:101CB000EC029093ED0280E094E00E94D21480E068
:101CC00094E00E94C8150E9414148093EE02909331
:101CD000EF0261E070E00E94E8148093F0029093BC
:101CE000F1028091F0029091F1020E94D214809151
:101CF000F0029091F1020E94C8150E941414809382
:101D0000F4029093F50280E09AE00E94D21480E001
:101D10009AE00E94C8150E9414148093F6029093D2
:101D2000F70261E070E00E94E8148093F80290935B
:101D3000F9028091F8029091F9020E94D2148091E8
:101D4000F8029091F9020E94C8150E941414809321
:101D5000FA029093FB0280E095E00E94D21480E0AA
:101D600095E00E94C8150E9414148093FE0290937F
:101D7000FF0261E070E00E94E814809300039093FA
:101D8000010380910003909101030E94D21480917D
:101D90000003909101030E94C8150E9414148093BF
:101DA00002039093030380E491E00E94D21480E444
:101DB00091E00E94C8150E9414148093040390932C
:101DC000050361E070E00E94E8148093080390939B
:101DD000090380910803909109030E94D214809115
:101DE0000803909109030E94C8150E94141480935F
:101DF0000A0390930B0380E095E00E94D21480E0E8
:101E000095E00E94C8150E94141480930C039093CF
:101E10000D0361E070E00E94E81480930E0390933C
:101E20000F0380910E0390910F030E94D2148091B2
:101E30000E0390910F030E94C8150E941414809302
:101E400010039093110385E590E00E94D21485E57C
:101E500090E00E94C8150E9414148093140390937C
:101E6000150361E070E00E94E814809316039093DC
:101E7000170380911603909117030E94D21480914A
:101E80001603909117030E94C8150E9414148093A2
:101E900018039093190384E293E00E94D21484E221
:101EA00093E00E94C8150E94141480931A03909323
:101EB0001B0361E070E00E94E81480931E0390937E
:101EC0001F0380911E0390911F030E94D2148091E2
:101ED0001E0390911F030E94C8150E941414809342
:101EE00020039093210380E097E00E94D21480E0C9
:101EF00097E00E94C8150E941414809322039093C7
:101F0000230361E070E00E94E8148093260390931D
:101F1000270380912603909127030E94D214809179
:101F20002603909127030E94C8150E9414148093E1
:101F300028039093290380E09CE00E94D21480E063
:101F40009CE00E94C8150E94141480932A03909369
:101F50002B0361E070E00E94E81480932C039093BF
:101F60002D0380912C0390912D030E94D214809117
:101F70002C0390912D030E94C8150E941414809385
:101F800030039093310380E09CE30E94D21480E000
:101F90009CE30E94C8150E9414148093320390930E
:101FA000330361E070E00E94E8148093340390935F
:101FB000350380913403909135030E94D2148091AF
:101FC0003403909135030E94C8150E941414809325
:101FD00036039093370380E09CE00E94D21480E0A7
:101FE0009CE00E94C8150E94141480933A039093B9
:101FF0003B0361E070E00E94E81480933C039093FF
:102000003D0380913C0390913D030E94D214809146
:102010003C0390913D030E94C8150E9414148093C4
:102020003E0390933F0380E091E00E94D21480E051
:1020300091E00E94C8150E9414148093400390936D
:10204000410361E070E00E94E814809342039093A2
:10205000430380914203909143030E94D2148091E4
:102060004203909143030E94C8150E941414809368
:1020700044039093450380E091E00E94D21480E0F5
:1020800091E00E94C8150E94141480934803909315
:10209000490361E070E00E94E81480934A03909342
:1020A0004B0380914A0390914B030E94D21480917C
:1020B0004A0390914B030E94C8150E941414809308
:1020C0004C0390934D0380E091E00E94D21480E095
:1020D00091E00E94C8150E941414809350039093BD
:1020E000510361E070E00E94E814809352039093E2
:1020F000530380915203909153030E94D214809114
:102100005203909153030E94C8150E9414148093A7
:1021100054039093550380E091E00E94D21480E034
:1021200091E00E94C8150E94141480935603909366
:10213000570361E070E00E94E81480935A03909383
:102140005B0380915A0390915B030E94D2148091AB
:102150005A0390915B030E94C8150E941414809347
:102160005C0390935D0380E091E00E94D21480E0D4
:1021700091E00E94C8150E94141480935E0390930E
:102180005F0361E070E00E94E81480936003909325
:10219000610380916003909161030E94D214809149
:1021A0006003909161030E94C8150E9414148093EB
:1021B00062039093630380E092EE0E94D21480E069
:1021C00092EE0E94C8150E941414809366039093A7
:1021D000670361E070E00E94E814809368039093C5
:1021E000690380916803909169030E94D2148091E1
:1021F0006803909169030E94C8150E94141480938B
:102200006A0390936B0380E09CE90E94D21480E003
:102210009CE90E94C8150E94141480936E03909349
:102220006F0361E070E00E94E81480937003909364
:10223000710380917003909171030E94D214809178
:102240007003909171030E94C8150E94141480932A
:1022500072039093730380E09EEC0E94D21480E09E
:102260009EEC0E94C8150E941414809374039093EE
:10227000750361E070E00E94E81480937603909308
:10228000770380917603909177030E94D214809116
:102290007603909177030E94C8150E9414148093CE
:1022A0007A0390937B0380E097EE0E94D21480E043
:1022B00097EE0E94C8150E94141480937C0390939B
:1022C0007D0361E070E00E94E81480937E039093A8
:1022D0007F0380917E0390917F030E94D2148091AE
:1022E0007E0390917F030E94C8150E94141480936E
:1022F00080039093810380E091E00E94D21480E0FB
:1023000091E00E94C8150E94141480938203909358
:10231000830361E070E00E94E8148093840390934B
:10232000850380918403909185030E94D21480914B
:102330008403909185030E94C8150E941414809311
:1023400086039093870380E091E00E94D21480E09E
:1023500091E00E94C8150E94141480938803909302
:10236000890361E070E00E94E81480938A039093EF
:102370008B0380918A0390918B030E94D2148091E9
:102380008A0390918B030E94C8150E9414148093B5
:102390008C0390938D0380E091E00E94D21480E042
:1023A00091E00E94C8150E94141480938E039093AC
:1023B0008F0361E070E00E94E81480939003909393
:1023C000910380919003909191030E94D214809187
:1023D0009003909191030E94C8150E941414809359
:1023E00092039093930383E390E00E94D21483E3DB
:1023F00090E00E94C8150E94141480939803909353
:10240000990361E070E00E94E81480939A0390932E
:102410009B0380919A0390919B030E94D214809118
:102420009A0390919B030E94C8150E9414148093F4
:102430009C0390939D0380E09AE00E94D21480E078
:102440009AE00E94C8150E94141480939E039093F2
:102450009F0361E070E00E94E8148093A2039093D0
:10246000A3038091A2039091A3030E94D2148091B0
:10247000A2039091A3030E94C8150E941414809394
:10248000A4039093A50380E09DE70E94D21480E00E
:102490009DE70E94C8150E9414148093A603909390
:1024A000A70361E070E00E94E8148093A803909372
:1024B000A9038091A8039091A9030E94D21480914E
:1024C000A8039091A9030E94C8150E941414809338
:1024D000AA039093AB0380E09EE70E94D21480E0B1
:1024E0009EE70E94C8150E9414148093AE03909337
:1024F000AF0361E070E00E94E8148093B003909312
:10250000B1038091B0039091B1030E94D2148091E5
:10251000B0039091B1030E94C8150E9414148093D7
:10252000B2039093B30385E593E50E94D21485E549
:1025300093E50E94C8150E9414148093B6039093EB
:10254000B70361E070E00E94E8148093B8039093B1
:10255000B9038091B8039091B9030E94D21480917D
:10256000B8039091B9030E94C8150E941414809377
:10257000BA039093BB0380E09BE10E94D21480E0F9
:102580009BE10E94C8150E9414148093BC03909391
:10259000BD0361E070E00E94E8148093BE03909355
:1025A000BF038091BE039091BF030E94D21480911B
:1025B000BE039091BF030E94C8150E94141480931B
:1025C000C2039093C30380E099E70E94D21480E095
:1025D00099E70E94C8150E9414148093C403909335
:1025E000C50361E070E00E94E8148093C6039093F5
:1025F000C7038091C6039091C7030E94D2148091B3
:10260000C6039091C7030E94C8150E9414148093BA
:10261000C8039093C90380E092E00E94D21480E046
:1026200092E00E94C8150E9414148093CC039093EA
:10263000CD0361E070E00E94E8148093CE03909394
:10264000CF038091CE039091CF030E94D21480914A
:10265000CE039091CF030E94C8150E94141480935A
:10266000D0039093D10380E09AE00E94D21480E0DE
:102670009AE00E94C8150E9414148093D40390938A
:10268000D50361E070E00E94E8148093D603909334
:10269000D7038091D6039091D7030E94D2148091E2
:1026A000D6039091D7030E94C8150E9414148093FA
:1026B000D8039093D90380E090E00E94D21480E088
:1026C00090E00E94C8150E9414148093DA0390933E
:1026D000DB0361E070E00E94E8148093DC039093D8
:1026E000DD038091DC039091DD030E94D214809180
:1026F000DC039091DD030E94C8150E94141480939E
:10270000DE039093DF0380E09DE70E94D21480E017
:102710009DE70E94C8150E9414148093E2039093D1
:10272000E30361E070E00E94E8148093E403909377
:10273000E5038091E4039091E5030E94D214809117
:10274000E4039091E5030E94C8150E94141480933D
:10275000E6039093E70380E09FE70E94D21480E0B5
:102760009FE70E94C8150E9414148093E803909379
:10277000E90361E070E00E94E8148093EA0390931B
:10278000EB038091EA039091EB030E94D2148091B5
:10279000EA039091EB030E94C8150E9414148093E1
:1027A000EE039093EF0380E09DE70E94D21480E057
:1027B0009DE70E94C8150E9414148093F003909323
:1027C000F10361E070E00E94E8148093F2039093BB
:1027D000F3038091F2039091F3030E94D21480914D
:1027E000F2039091F3030E94C8150E941414809381
:1027F000F4039093F503FFCF0F9300E00093C5001F
:1028000007E60093C40008E00093C10006E00093CF
:10281000C2000F9108950F930091C00005FFFCCFF7
:102820008093C6000F9108958F938DE00E940B1442
:102830008AE00E940B148F9108952F933F934F933A
:102840005F939C01AB01249FC001349F900D259F95
:10285000900D11245F914F913F912F9108950F9307
:102860001F932F933F934F935F939C01AB01662778
:10287000772788279927249FB001259F700D811DF8
:1028800000E0901F349F700D811D901F359F800DBB
:10289000911D11245F914F913F912F911F910F91A5
:1028A0000895AF93EE24FF2400271127A0E2660FBE
:1028B000771F881F991FEE1CFF1C001F111FE216B7
:1028C000F3060407150728F0E21AF30A040B150BA8
:1028D0006395AA9561F7AF9108950F931F93AF93F6
:1028E000BF93DC018B01E02EE12A19F48FEF9FEFFB
:1028F00013C088279927EE24FF2420E1880F991F11
:10290000AA0FBB1FEE1CFF1CE016F10618F0E01A20
:10291000F10A83952A9591F7BF91AF911F910F917D
:10292000089586179707A9F017C08617970789F4A7
:1029300013C0681779076CF00FC0861797074CF023
:102940000BC0861797072CF407C0681779070CF49B
:1029500003C081E090E0089580E090E008950E9437
:102960006D14C70108954F935F936F93462F4030C6
:1029700019F481E090E00CC0413051F04A95BC015F
:102980006F937F930E941D147F916F914A95C1F7B9
:102990006F915F914F9108950F9300E00093F004C1
:1029A0000F9108950F93EF93FF930091F004E8E2E5
:1029B000F4E0E00FF11DE00FF11D81939083009191
:1029C000F00403950093F004FF91EF910F910895A7
:1029D0000F93EF93FF930091F004061BE8E2F4E0FD
:1029E000E00FF11DE00FF11D81919081FF91EF91BA
:1029F0000F9108950F938093F1049093F20401E0F6
:102A00000093F3040F9108950F930091F3040130A4
:102A100019F080E090E004C08091F1049091F204FC
:102A20000F9108950F93EF92FF92002797FF03C035
:102A300003950E942A1577FF03C003950E942E1567
:102A40000E946D1400FF02C00E942A15FF90EF90B3
:102A50000F910895909581959F4F08957095619578
:102A60007F4F08958F939F930F93082F092B21F485
:102A700080E30E940B140BC097FF07C08F938DE279
:102A80000E940B148F910E942A150E944B150F91E2
:102A90009F918F910895082F092B79F08F939F9321
:102AA0006AE070E00E946D14EF920E944B158F91C6
:102AB000805D0E940B149F918F9108954F935F93B7
:102AC0000F93002797FF03C003950E94C01577FF5F
:102AD00003C003950E94C4150E942F14982F872FBE
:102AE00000FF02C00E94C0150F915F914F910895A1
:102AF000EF92FF920F931F932F933F934F935F9308
:102B0000CF93CC2797FF03C0C3950E94C01577FFD2
:102B100003C0C3950E94C415262F372F442755277D
:102B2000692F782F862F662799270E945114CB0191
:102B3000C0FF02C00E94C015CF915F914F913F919D
:102B40002F911F910F91FF90EF9008954F935F93F6
:102B50006F93AF93BF93A62FA03019F480E091E05C
:102B600009C0A13039F0AC01AA95BA010E945E15E6
:102B7000AA95D9F7BF91AF916F915F914F91089549
:102B8000909581959F4F0895709561957F4F089519
:102B90008F939F936F937F930F9397FF07C08F93AC
:102BA0008DE20E940B148F910E94C0158F93892F84
:102BB00090E00E9432158F918F938EE20E940B1449
:102BC0008F91682F70E0862F90E068EE73E00E948E
:102BD0002F14982F872F00E08436900728F48F93C6
:102BE00080E30E940B148F9100E08A30900728F454
:102BF0008F9380E30E940B148F910E9432150F91E6
:0E2C00007F916F919F918F910895F894FFCF6F
:00000001FF
